:020000040800F2
:10000000A8080020010100082D0D0008810B000840
:10001000290D0008210600083D1F0008000000000F
:10002000000000000000000000000000AD1B000800
:10003000C507000800000000FB140008991C000818
:100040001B0100081B0100081B0100081B01000820
:100050001B0100081B0100081B0100081B01000810
:100060001B0100081B0100081B0100081B01000800
:100070001B0100081B0100081B0100081B010008F0
:100080001B0100081B0100081B0100081B010008E0
:100090001B0100081B0100081B0100081B010008D0
:1000A0001B0100081B0100081B0100081B010008C0
:1000B0001B0100081B0100081B0100081B010008B0
:1000C0001B0100081B0100081B0100081B010008A0
:1000D0001B0100081B0100081B0100081B01000890
:1000E0001B0100081B0100081B010008DFF80CD0F1
:1000F00000F008F90048004705230008A808002080
:100100000648804706480047FEE7FEE7FEE7FEE7B1
:10011000FEE7FEE7FEE7FEE7FEE7FEE7C91C000894
:10012000ED000008F0B480EA0102D40F4200B2EB07
:10013000410F02D20246084611464A0042D0C30D82
:10014000DDB2C1F3C752AD1A202D35DAC1F3160165
:1001500041F4000204B15242C5F1200602FA06F150
:100160002A411044B3EBD05F23D0C4B1012DA0EBE2
:10017000C35009DCF0BC4FF0004202EAC352DBB2CC
:1001800000F5000000F090B8400000F1807000EB36
:10019000C350A0F1807040EAD170490009E04908DD
:1001A00041EAC071A0EBC35000F50000400800EB2D
:1001B000C350F0BC00F06FB86142012202EB410174
:1001C000001BF6E7F0BC704781F00041AAE780F021
:1001D0000040A7E780EA010210B502F000434000AA
:1001E00022D04A001FD0010E01EB1261C0F356006D
:1001F000C2F3560240F4000042F40002A0FB0220C9
:1002000000047F39140400D0401C50EA124001D48D
:100210004000491EC2B20C0604EBD010401C40083E
:10022000802A02D003E0002010BD20F00100002948
:1002300000DA0020184310BD96230022114600F07A
:1002400033B820F00040C10DC0F3160040F40000A8
:100250007F2901DA00207047962903DCC1F196015D
:10026000C840704796398840704730B50B46014604
:1002700000202022012409E021FA02F59D4205D345
:1002800003FA02F5491B04FA02F52844151EA2F1EF
:100290000102F1DC30BD0029A8BF7047401C4900B5
:1002A00008BF20F00100704710B4B0FA80FC00FADB
:1002B0000CF050EA010404BF10BC704749B1CCF106
:1002C000200421FA04F411FA0CF118BF0121214392
:1002D0000843A3EB0C01CB1D4FEA00614FEA10204D
:1002E00042BF002010BC704700EBC35010440029EF
:1002F000A4BF10BC7047401C490008BF20F001009B
:1003000010BC7047064C074D06E0E06840F0010362
:1003100094E8070098471034AC42F6D3FFF7EAFEA2
:10032000584400087844000808B50121084601F047
:10033000F1F801214FF4017001F00CF900208DF863
:1003400003000F20ADF800006946024800F01EFBD4
:1003500008BD00000008014000B591B03D4800F024
:100360006DF93D4806903D48079000200890042014
:10037000099000200A9080200B9040000C90800093
:100380000D9020200E9000020F900020109006A9E2
:10039000304800F0F9F901212E4800F043F900201F
:1003A000019001208DF808008DF809004FF46020BD
:1003B00003900020049004208DF8140001A9264821
:1003C0004C3800F077F84FF4404001F097F80523DF
:1003D0000122002120484C3800F094F80523022225
:1003E00001211D484C3800F08DF80523032202211D
:1003F00019484C3800F086F80523042203211648DA
:100400004C3800F07FF8012113484C3800F033F8E5
:10041000012111484C3800F023F80F484C3800F007
:10042000CDF800BF0C484C3800F03AF80028F9D15C
:1004300009484C3800F0D2F800BF07484C3800F0AB
:1004400025F80028F9D1012103484C3800F0BBF809
:1004500011B000BD080002404C24014032000020D1
:1004600021B1826842F00102826003E0826822F0DA
:1004700001028260704721B1826842F4807282601A
:1004800003E0826822F48072826070470146002097
:100490008A6802F004020AB1012000E000207047DF
:1004A000014600208A6802F008020AB1012000E03B
:1004B0000020704730B502460020002350680F4CE2
:1004C00020400D790C6844EA052420435060906870
:1004D0000B4C2040D1E902542C434D7944EA4504A9
:1004E00020439060D06A20F470000C7C641EE4B25B
:1004F000234340EA0350D06230BD0000FFFEF0FF0E
:10050000FDF7F1FFF0B504460D4600200021092D4E
:1005100011DDE068A5F10A0606EB4607072606FA94
:1005200007F18843A5F10A0606EB460603FA06F131
:100530000843E0600CE0206905EB4507072606FA52
:1005400007F1884305EB450603FA06F108432061ED
:10055000072A0FDA606B561E06EB86071F2606FA7F
:1005600007F18843561E06EB860605FA06F1084396
:10057000606322E00D2A0FDA206BD61F06EB860798
:100580001F2606FA07F18843D61F06EB860605FAF2
:1005900006F10843206310E0E06AA2F10D0606EBC5
:1005A00086071F2606FA07F18843A2F10D0606EB1F
:1005B000860605FA06F10843E062F0BD816841F065
:1005C00008018160704721B1826842F4A002826014
:1005D00003E0826822F4A00282607047816841F0E3
:1005E000040181607047000008B50121042000F07B
:1005F000B1FF4FF48050ADF8000010208DF80300DB
:1006000003208DF802006946044800F0BFF94FF45A
:10061000805002491431086008BD00000008014004
:1006200000BFFEE721B1026842F00102026004E06F
:1006300002684FF6FE731A400260704701684FF679
:10064000FE72114001600021016041608160C16063
:100650004B49884208D14A490839496841F00F019D
:10066000474A083A51608AE045491431884208D126
:1006700043490839496841F0F001414A083A51605C
:100680007DE03F492831884208D13D490839496811
:1006900041F470613A4A083A516070E038493C319F
:1006A000884208D136490839496841F47041344AD2
:1006B000083A516063E032495031884208D13049EC
:1006C0000839496841F470212D4A083A516056E0D2
:1006D0002B496431884208D129490839496841F4D5
:1006E0007001274A083A516049E02549783188422B
:1006F00008D123490839496841F07061204A083A15
:1007000051603CE01F49884206D1011F096841F051
:100710000F01021F116032E01A491431884208D1DA
:100720001849091F096841F0F001164A121F1160AB
:1007300025E014492831884208D11249091F096867
:1007400041F470610F4A121F116018E00D493C31ED
:10075000884208D10B49091F096841F47041094AD0
:10076000121F11600BE007495031884207D105493B
:10077000091F096841F47021024A121F1160704775
:10078000080002400804024010B50022026847F643
:10079000F0739A430C6A8B6823430C6923434C69BA
:1007A00023438C692343CC6923434C6A23438C6ADB
:1007B00023431A430260CB6843600B6883604B6835
:1007C000C36010BD704700000149C8607047000059
:1007D0000020024030B5044604254FF4302000F0DC
:1007E0006FF80546042D17D10C48006940F002004F
:1007F0000A49086108464461006940F04000086108
:100800004FF4302000F05CF805460448006941F6DA
:10081000FD71084001490861284630BD00200240B2
:1008200004200B49C96801F0010109B101200EE063
:100830000749C96801F0040109B1022007E0044931
:10084000C96801F0100109B1032000E004207047DD
:10085000002002400348006940F08000014908611F
:10086000704700000020024070B504460D46042683
:10087000F00200F025F80646042E11D1094800695F
:1008800040F00100074908612580F00200F018F8E7
:1008900006460448006941F6FE71084001490861B6
:1008A000304670BD002002400248034948600348BA
:1008B000486070472301674500200240AB89EFCDB7
:1008C00000B502460423FFF7ABFF034603E0FFF742
:1008D000A7FF0346521E012B01D1002AF7D102B90E
:1008E0000523184600BD000070B504460D46FFF70D
:1008F000DBFF3420FFF768FF01201F49086000205C
:100900001E49086010E01D4909681D4A531403FB85
:100910000120FFF75FFF042801D000BFFEE7174862
:100920000068401C154908601448006812490968AD
:10093000884203D2134800780428E4D010481249B2
:10094000086010E0208881B20F480068FFF78CFF34
:10095000042806D1A41C0C480068801C0A490860C1
:1009600001E000BFFEE72800A5F10101CDB2E9D109
:10097000FFF770FF70BD0000480000203C00002021
:1009800000FC00084C000020400000202DE9F04150
:10099000024600250026002000230024002791F8AD
:1009A00003C00CF00F0591F803C00CF0100CBCF163
:1009B000000F03D091F802C04CEA050591F800C081
:1009C000BCF1000F31D0146800202BE04FF0010C77
:1009D0000CFA00F3B1F800C00CEA03069E4220D1E5
:1009E00083004FF00F0C0CFA03F7BC4305FA03FC2D
:1009F0004CEA040491F803C0BCF1280F06D14FF073
:100A0000010C0CFA00FCC2F814C00AE091F803C013
:100A1000BCF1480F05D14FF0010C0CFA00FCC2F8F4
:100A200010C0401C0828D1D31460B1F800C0BCF13C
:100A3000FF0F34DD546800202EE000F1080C4FF069
:100A4000010808FA0CF3B1F800C00CEA03069E4254
:100A500021D183004FF00F0C0CFA03F7BC4305FAC9
:100A600003FC4CEA040491F803C0BCF1280F05D143
:100A700000F1080C08FA0CF8C2F8148091F803C0D1
:100A8000BCF1480F07D100F1080C4FF0010808FA3B
:100A90000CF8C2F81080401C0828CED35460BDE882
:100AA000F0810000F0B50A46002300240021002553
:100AB00000F00046B6F1004F02D11D4EF16901E091
:100AC0001B4E7168C0F3034583B200F44016B6F5BF
:100AD000401F08D121F07061154E766826F07066CF
:100AE000134F7E6012E000F48016B6F5801F06D129
:100AF000032606FA05F4A14341F0706106E0460DB5
:100B0000360103FA06F6B14341F0706122B1460D99
:100B1000360103FA06F6314300F00046B6F1004F05
:100B200002D1034EF16101E0014E7160F0BD0000A1
:100B300000000140416170470161704700BF0E48ED
:100B400001684FF0E02082690B4800688142F6D1CD
:100B50000A48006800EB4003C3EBC010C2EBC000C2
:100B6000064B1B68B0FBF3F001EB4103C3EBC11371
:100B700000EBC300704700001800002014000020A4
:100B800000BFFEE708B50121082000F0E3FCC0200B
:100B9000ADF8000010208DF8030003208DF802004E
:100BA00069460448FFF7F2FEC0210248FFF7C4FF80
:100BB00008BD0000000C014070B5044618480068EC
:100BC00020F07040164908600846006840F0405028
:100BD000086000201349086000251EE0E00920B1EC
:100BE00001201049091D086003E000200D49091D7E
:100BF00008606006040E022001F0D7FA01200949BE
:100C00000860022001F0D1FA00200749C1F89801DC
:100C1000022001F0CAFA681CC5B2082DDEDB70BDE7
:100C2000000C0140988121420080214210B50F48FC
:100C3000006820F070400D4908600846006840F0E8
:100C40004050086001200A4908600A49C1F898012B
:100C5000042001F0AAFA002005490860042001F0F0
:100C6000A4FA00200349C1F8980110BD000C01400E
:100C70009C8121420080214210B50F48006820F07D
:100C800070400D4908600846006840F04050086018
:100C900000200A4908600A49C1F89C01042001F0BB
:100CA00084FA0120054908600549C1F89C01042027
:100CB00001F07BFA10BD0000000C01409881214238
:100CC0000080214210B500241448006820F07040D4
:100CD000124908600846006840F0004008600120A2
:100CE0000F49086001F061FA01200E49C1F898012E
:100CF00001F05BFA07E0601CC4B2FA2C03DDFFF7D9
:100D0000BBFF012010BD0648803800680028F2D1E2
:100D10000349091F086000BFF4E70000000C014010
:100D20009C8121420080214200BFFEE77047000005
:100D30001FB510A103C9CDE90201052202A9302087
:100D400000F0E2F805226946102000F07FF8002448
:100D500006E01DF80400A52800D003E0601CC4B222
:100D6000052CF6DB00BF052C02D0012004B010BD1D
:100D70000020FBE7A5A5A5A5A500000008B5012159
:100D8000084600F0E7FB01212D48FFF78BFE01210B
:100D9000082000F0DFFB4FF4C060ADF80000102029
:100DA0008DF8030003208DF8020069462548FFF7FF
:100DB000EDFD0121042000F0CDFB4FF40040ADF823
:100DC000000010208DF8030003208DF80200694612
:100DD0001D48FFF7DBFD0121042000F0BBFB1020C4
:100DE000ADF800008DF8030003208DF8020069467D
:100DF0001548FFF7CBFD4FF4004013491031086050
:100E000010200860C001ADF8000048208DF80300F4
:100E100003208DF8020069460B48FFF7B7FD4FF439
:100E200000610948FFF788FE00F030FE4FF40040F3
:100E30000549143108601020091F086008BD000032
:100E400000023000000C0140000801402DE9F04193
:100E500007460D46164610200B490860384600F03C
:100E600089FE8046002405E0FF2000F083FE28551F
:100E7000601CC4B2B442F7DB10200349091F0860AC
:100E80004046BDE8F08100001408014070B50446FA
:100E9000102007490860204600F06CFEFF2000F09B
:100EA00069FE054610200249091F0860284670BDEA
:100EB0001408014070B505464FF400401149086020
:100EC00020222946A02000F01FF84FF400400D49D1
:100ED000091F08600720FFF7D9FF04462146272095
:100EE00000F032F804F0100028B1FF21E12000F0FA
:100EF0002BF8102070BD04F0200008B12020F9E785
:100F0000FF20F7E7140801402DE9F04107460C46A1
:100F1000154610200B490860384600F02BFE80462D
:100F2000002605E014F8010B00F024FE701CC6B288
:100F3000AE42F7DB10200349091F08604046BDE8B8
:100F4000F08100001408014070B505460C461020E1
:100F500007490860284600F00DFE0646204600F0CE
:100F600009FE10200249091F0860304670BD0000CC
:100F70001408014010B5FFF701FF00BFFFF7D8FECE
:100F80000028FBD14FF400710248FFF7D5FD00F0B7
:100F9000CBFE10BD000C014010B504201BE0194928
:100FA000014411F8031C184A11541146C97F125C00
:100FB0001144154AD1771349014411F8042C124BFE
:100FC000411C5A541946C97F1A46125C11441A46EC
:100FD000D177811CC8B21A28E1DB00200A49C87702
:100FE00000BF08E00849C97F074A125C1144064A5D
:100FF000D177411CC8B21F28F4DB0348FFF75AFF22
:1010000010BD0000500000206800002008B54FF41B
:10101000E06000F057F825208DF8000000208DF8E2
:1010200001008DF8020001208DF80300684600F0F1
:1010300011F81D208DF8000002208DF8010003201A
:101040008DF8020001208DF80300684600F002F8D8
:1010500008BD000070B5002100230F22C47804B33E
:10106000154C246804F4E064C4F5E064210AC1F17D
:101070000403CA40447804FA03F1847814402143FD
:1010800009010E4C0678A155047804F01F050124CF
:10109000AC4005786D11AD0005F1E025C5F80041C3
:1010A00009E0047804F01F050124AC40044D0678E3
:1010B000761145F8264070BD0CED00E000E400E03C
:1010C00080E100E002490143024A116070470000DC
:1010D0000000FA050CED00E070B500240CE00025DE
:1010E00006E00020074901EBC5010855681CC5B2A0
:1010F000802DF6DB601CC4B2082CF0DB00F016F982
:1011000070BD00009C000020F0B5144600267F282A
:1011100001DC3F2900DDF0BD0B46CF1701EB57770F
:10112000FF10C7F10707FAB2CF1701EB5777FF108F
:10113000A1EBC707FDB2C5F107070123BB40DEB233
:101140004CB10A4B03EBC0039B5C3343074F07EBE7
:10115000C007BB5408E0054B03EBC0039B5CB343E3
:10116000024F07EBC007BB5400BFD4E79C00002030
:1011700010B5FFF707FD0021AE2000F0B2F9002105
:10118000D52000F0AEF90021502000F0AAF900218E
:10119000A82000F0A6F900213F2000F0A2F90021CC
:1011A000D32000F09EF90021084600F09AF90021B2
:1011B000402000F096F900218D2000F092F90021E6
:1011C000142000F08EF90021202000F08AF900217F
:1011D000022000F086F90021A12000F082F9002110
:1011E000C02000F07EF90021DA2000F07AF9002119
:1011F000122000F076F90021812000F072F9002120
:10120000EF2000F06EF90021D92000F06AF90021EA
:10121000F12000F066F90021DB2000F062F90021E6
:10122000302000F05EF90021A42000F05AF90021DE
:10123000A62000F056F90021AF2000F052F9FFF788
:101240004BFF0021AE2000F04CF90021084600F0D1
:1012500048F90021102000F044F90021402000F05E
:1012600040F90021B02000F03CF90021812000F07D
:1012700038F90021FF2000F034F90021A12000F00E
:1012800030F90021A62000F02CF90021A82000F060
:1012900028F900213F2000F024F90021C82000F0A7
:1012A00020F90021D32000F01CF90021084600F0AD
:1012B00018F90021D52000F014F90021802000F059
:1012C00010F90021D82000F00CF90021052000F0D1
:1012D00008F90021D92000F004F90021F12000F0E4
:1012E00000F90021DA2000F0FCF80021122000F0C3
:1012F000F8F80021DB2000F0F4F80021302000F0A5
:10130000F0F800218D2000F0ECF80021142000F00E
:10131000E8F80021AF2000F0E4F80021A12000F05F
:10132000E0F80021C02000F0DCF810BD70B500240A
:101330001CE004F1B001C8B2002100F0D2F8002195
:10134000084600F0CEF80021102000F0CAF8002571
:1013500008E0084901EBC501085D012100F0C1F872
:10136000681CC5B2802DF4DB601CC4B2082CE0DB25
:1013700070BD00009C0000202DE9F84F80460F460C
:1013800016461C46BA462046E31704EB5373DB109F
:1013900021464FEAE47C04EB5C7C4FEAEC0CA4EBC6
:1013A000CC0CBCF1000F02D04FF0010C01E04FF06B
:1013B000000C6344224604EBD27C4FEA6C0C03FB26
:1013C0000CF303F0FF0BA6F12000C6B200254EE09F
:1013D0000C2C07D106EB4600274901EB8000405D4D
:1013E000009013E0102C05D1244800EB0610405D5E
:1013F00000900BE0182C07D106EBC600204901EB4A
:101400008000405D009001E0BDE8F88F4FF00009DA
:1014100027E0009800F0800028B1394640460A9A3B
:10142000FFF772FE09E00A9808B9012000E00020E9
:10143000024639464046FFF767FE00984006000E18
:101440000090781CC7B2A7EB0A00A04205D157460E
:1014500008F1010000F0FF0806E009F1010000F0CA
:10146000FF09B9F1080FD4DB00BF681CC5B25D45A8
:10147000AEDB00BFC8E7000036240008AA28000839
:101480009A2E0008F8B506460F4615461C4621E080
:1014900004EBD4714910C1F18001B14202DA002697
:1014A0003819C7B2C4F14000B84204DA0020064639
:1014B0000746FFF711FE012000902A78234639469F
:1014C0003046FFF759FF204604EBD07106EB61016F
:1014D000CEB26D1C28787E2802DC28782028D7DA46
:1014E000F8BD70B504460D461DB1E0B200F03EFDFA
:1014F00002E0E0B200F024FD70BD7047014600201C
:10150000034A506820F44040084350607047000090
:101510000010024029B1064A52690243044B5A6145
:1015200004E0034A52698243014B5A61704700004C
:101530000010024029B1064AD2690243044BDA6125
:1015400004E0034AD2698243014BDA61704700002C
:101550000010024029B1064A92690243044B9A6185
:1015600004E0034A92698243014B9A61704700008C
:101570000010024010B5012145F21D20FFF7EAFFDF
:1015800001210248FFF7D6FF10BD00000200240031
:1015900030B500210022002400232D4D6D6805F098
:1015A0000C0121B1042905D0082923D105E0294DDA
:1015B000056022E0274D05601FE0254D6D6805F4AC
:1015C0007012234D6D6805F48034022505EB9242BC
:1015D0001CB9214D554305600BE01D4D6D6805F4A8
:1015E00000351DB11C4D5543056002E0194D5543B2
:1015F000056002E0174D056000BF00BF144D6D6827
:1016000005F0F0010909154D6B5C0568DD4045608A
:101610000F4D6D6805F4E061090A104D6B5C45687B
:10162000DD4085600A4D6D6805F46051C90A0B4DB7
:101630006B5C4568DD40C560054D6D6805F4404153
:10164000890B074D6B5CC568B5FBF3F5056130BDD3
:101650000010024000127A0000093D001D00002029
:101660002D000020F8B5AC49C888FEF7E5FD054619
:101670004FF07A51FEF7AEFD0446FEF7E2FD00F5AD
:101680007A70A649C9880844A5498880A548008879
:10169000FEF7D2FD07464FF07D51FEF79BFD054654
:1016A0009F498888FEF7C8FD07464FF07A51FEF73C
:1016B00091FD06462946FEF735FD0446FEF7C1FDBD
:1016C00080B2974988809749088093494888FEF7F7
:1016D000B3FD05464FF07A51FEF77CFD0446FEF758
:1016E000B0FD00F57A708D49898808448C4948809E
:1016F0008D480088FEF7A0FD07464FF07D51FEF7AC
:1017000069FD054686494888FEF796FD07464FF075
:101710007A51FEF75FFD06462946FEF703FD0446B3
:10172000FEF78FFD80B27E4948807F4908807A4964
:101730008888FEF781FD05464FF07A51FEF74AFD95
:101740000446FEF77EFD00F57A7074490989084465
:101750007349C8800846C08840F2DC51884217DDD2
:101760006F48C088B0F5FA6F04DB40F2ED306C4989
:10177000C8802AE06A48C088A0F2DC506849C88066
:101780000846C08840F2DC51081A6549C8801CE050
:101790006348C08840F2DC51884216DA6048C0884D
:1017A00040F2F231884204DA4FF4FA605C49C880B2
:1017B0000BE05B48C08840F2DC51081A5849C880E9
:1017C0000846C08800F2DC50C88058480088FEF700
:1017D00033FD07464FF07D51FEF7FCFC05465049AE
:1017E000C888FEF729FD07464FF07A51FEF7F2FC54
:1017F00006462946FEF796FC0446FEF722FD80B217
:101800004749C8804949088043490888FEF714FDC4
:1018100005464FF07A51FEF7DDFC0446FEF711FD58
:1018200000F57A703D49498808443D4908800846DA
:10183000008840F2DC51884217DD39480088B0F555
:10184000FA6F04DB40F2ED30354908802AE0344875
:101850000088A0F2DC50324908800846008840F237
:10186000DC51081A2E4908801CE02D48008840F2FF
:10187000DC51884216DA2A48008840F2F231884268
:1018800004DA4FF4FA60264908800BE02448008807
:1018900040F2DC51081A224908800846008800F20C
:1018A000DC50088022480088FEF7C6FC07464FF04F
:1018B0007D51FEF78FFC054619490888FEF7BCFCF0
:1018C00007464FF07A51FEF785FC06462946FEF79B
:1018D00029FC0446FEF7B5FC80B211490880144982
:1018E000088014480088401C124908800846008877
:1018F000C8280CDB0A48808800900948C388028801
:1019000041880DA000F048FB00200A49088000F043
:101910006DFCFFF741FBF8BD320000209C04002065
:1019200050000020880000208C0000208E00002045
:101930008A00002066000020C7B0BAF33A20256470
:10194000202020D7F3D3D23A202564202020BABD0E
:10195000CFF23A202564202020D3CDC3C53A2025DC
:1019600064200D0A0000000038B53E4800883E495A
:1019700008800846008866285FD04FF47A7000F02F
:1019800003FC3A490888FEF757FC05464FF07A51A8
:10199000FEF720FC0446FEF754FCC0F5FA7000B2D6
:1019A0003149488031494888FEF746FC05464FF0EA
:1019B0007A51FEF70FFC0446FEF743FCA0F5FA70DF
:1019C00000B2294988802949C888FEF735FC0546B8
:1019D0004FF07A51FEF7FEFB0446FEF732FC00B2F0
:1019E0002149C88021498888FEF726FC05464FF02A
:1019F0007A51FEF7EFFB0446FEF723FCC0F5FA70C0
:101A000000B219490881662008800846B0F9020032
:101A100000900846B0F90830B0F90420B0F906107B
:101A2000134800F0B9FA1048B0F90600012815DC97
:101A300005210D48FEF758FF10E00A48801C008879
:101A4000094948800748001D008888800548801D96
:101A50000088C880034808300088088100F036FC00
:101A600038BD000000FC00089C040020320000206B
:101A70001044000821B1028842F04002028004E0D4
:101A800002884FF6BF731A400280704700B587B0D6
:101A900001210803FFF74EFD01210520FFF75AFD44
:101AA00010211C48FFF748F8E020ADF8040003209F
:101AB0008DF8060018208DF8070001A91548FEF7DB
:101AC00065FF00211448FFF7D5FF0020ADF808009E
:101AD0004FF48270ADF80A000020ADF80C00ADF8AC
:101AE0000E00ADF810004FF40070ADF81200102099
:101AF000ADF814000020ADF816000720ADF818006E
:101B000002A9054800F018F801210348FFF7B2FFC9
:101B100007B000BD0008014000300140024600202F
:101B200013890B400BB1012000E0002070470146F3
:101B3000888970478181704710B50022028802F4BD
:101B400041520B884C8823438C882343CC88234301
:101B50000C8923434C8923438C892343CC89234319
:101B60001A430280838B4FF2FF74234083830B8AD6
:101B7000038210BD10B5044600BF02210A48FFF7DA
:101B8000CDFF0028F9D021460748FFF7D3FF00BF5B
:101B900001210548FFF7C2FF0028F9D00248FFF7EE
:101BA000C6FFC0B210BD000000300140704710B544
:101BB00000F002F810BD00000CB50020019000906C
:101BC0003348006840F480303149086000BF304835
:101BD000006800F4003000900198401C01900098CB
:101BE00018B90198B0F5A06FF1D12948006800F448
:101BF000003010B10120009001E00020009000981A
:101C0000012843D12348006840F0100021490860B2
:101C10000846006820F0030008600846006840F0AD
:101C2000020008601A484068194948600846406840
:101C300048600846406840F4806048600846406854
:101C400020F47C1048600846406840F4E810486082
:101C50000846006840F08070086000BF0C480068CB
:101C600000F000700028F9D00948406820F0030017
:101C7000074948600846406840F00200486000BFDD
:101C80000348406800F00C000828F9D10CBD0000A2
:101C9000001002400020024010B509480068401CB6
:101CA00007490860074801780078401C054A107011
:101CB000012904DB002011460870FFF7D3FC10BD9A
:101CC000180000201C00002010B51348006840F0E8
:101CD00001001149086008464068104908400E4953
:101CE0004860084600680E4908400B4908600846ED
:101CF000006820F4802008600846406820F4FE0058
:101D000048604FF41F008860FFF751FF4FF00060FC
:101D10000449086010BD0000001002400000FFF8F8
:101D2000FFFFF6FE08ED00E010B54FF40040154946
:101D30000860052214493020FFF7E6F80522134910
:101D40002A20FFF7E1F801212120FFF7FDF801210A
:101D50002220FFF7F9F81A212420FFF7F5F82D21AA
:101D60002520FFF7F1F80F212620FFF7EDF80E21CF
:101D70002020FFF7E9F84FF400400249091F0860EE
:101D800010BD0000140801402C2400083124000874
:101D900000B587B001212148FFF7CCFB25208DF845
:101DA000040000208DF805008DF8060001208DF854
:101DB000070001A8FFF74EF94FF40070ADF81800C6
:101DC00018208DF81B0003208DF81A0006A914486E
:101DD000FEF7DCFD4FF48060ADF8180004208DF8AC
:101DE0001B0006A90E48FEF7D1FD4FF4E13002902A
:101DF0000020ADF80C00ADF80E00ADF81000ADF805
:101E000014000820ADF8120002A9064800F026F8D8
:101E10000121044800F008F807B000BD08000400E4
:101E2000000801400038014021B1828942F400528B
:101E3000828104E082894DF6FF731A4082817047E7
:101E400002460020B1F5007F00D100BF13880B408F
:101E50000BB1012000E00020704700002DE9F047A1
:101E600086B005460E460024A24600BFA1460027C4
:101E7000B08900B100BF2F462C8A4CF6FF70044099
:101E8000F08804432C82AC894EF6F3100440B088ED
:101E900031890843718908430443AC81AC8A4FF609
:101EA000FF400440B0890443AC8201A8FFF770FBF7
:101EB0001F48874202D1DDF810A001E0DDF80CA038
:101EC000A88900F4004040B10AEBCA0000EB0A10F8
:101ED00031684900B0FBF1F807E00AEBCA0000EBFB
:101EE0000A1031688900B0FBF1F86420B8FBF0F00B
:101EF00004012009642101FB1089A88900F4004035
:101F000040B1322000EBC900B0FBF1F000F0070057
:101F1000044308E0322000EB09106421B0FBF1F02B
:101F200000F00F0004432C8106B0BDE8F0870000EC
:101F300000380140C1F308028280704700BFFEE70D
:101F400010B50446FEF772FE7820FEF735FEFEF768
:101F5000B9FE0020FEF730FEFEF7B4FE2046FEF785
:101F60002BFEFEF7AFFEFEF787FE10BD10B5044650
:101F7000FEF75CFE7820FEF71FFEFEF7A3FE402072
:101F8000FEF71AFEFEF79EFE2046FEF715FEFEF750
:101F900099FEFEF771FE10BD0FB4054B10B503A9F5
:101FA000044A029800F034F810BC5DF814FB0000FD
:101FB000C92100089800002002E008C8121F08C1CB
:101FC000002AFAD170477047002001E001C1121FBA
:101FD000002AFBD17047000010B5FEF7CBFFFFF7DA
:101FE000D7FE642000F0D0F804A0FFF7D5FFFEF77D
:101FF0009BF9FEF7B1F9FFF7B7FC10BD0D0A73743A
:102000006D333266313033433874360D0A000000C8
:102010002DE9FF4F89B09B460446002506E02528A0
:102020000BD05A460B999047641C6D1C20780028F1
:10203000F5D10DB02846BDE8F08F0027B846012243
:10204000474900E0074314F8013F203B02FA03F040
:102050000842F7D120782E2819D114F8010F47F043
:1020600004072A280ED06FF02F022078A0F130014B
:1020700009290CD808EB880102EB410100EB0108AB
:10208000641CF2E70A98641C50F8048B0A902078CC
:102090000028CED0642808D0692806D075281ED024
:1020A0005A460B9990476D1C58E00A994FF00A095F
:1020B00001C90A91002802DA40422D2102E03905C7
:1020C00004D52B218DF82010012103E0F90704D05D
:1020D0002021F7E78A4608AE0DE00021FAE70A99C9
:1020E0004FF00A0901C90A91F7E74946FEF7BDF822
:1020F000303106F8011D0028F7D1ADEB060000F1E4
:102100002009780701D44FF00108C84502DDA8EB8B
:10211000090000E000208046002706E008A85A4693
:10212000C05D0B9990476D1C7F1C5745F6DB04E0A2
:1021300030205A460B9990476D1CB8F10001A8F168
:102140000108F5DC05E016F8010B5A460B9990479B
:102150006D1CB9F10001A9F10109F4DC641C65E70B
:102160000928010000B585B06846FFF711FA044957
:102170000098B0FBF1F00349086005B000BD000015
:1021800040420F001400002030B50446FEF7D6FC94
:10219000054600BFFEF7D2FC401B04EB4401C1EB37
:1021A000C411B0EBC10FF5D330BD0146002005E0EE
:1021B000012001E0421ED0B20028FBDC0A00A1F1A0
:1021C0000101F5D17047000070B504460D46E1B23B
:1021D0000548FFF7AFFE00BF40210348FFF730FE80
:1021E0000128F9D1204670BD0038014010B53148B2
:1021F000007820B101281DD0022859D125E02E48B1
:1022000000682E490968401A142812D92C48006821
:1022100000F49C70B0F59C7F02D101202549087024
:102220004FF4805027490860811025480838FEF790
:1022300081FC3DE02248006800F49C70B0F59C7F72
:1022400002D002201B49087032E01D48006800F0EF
:102250001000D8B11A48006800F02000B0B118484A
:10226000006800F0080030B917488088401F00B2AD
:10227000154988800AE01248006800F4807028B987
:1022800011488088401D00B20F498880002009490C
:1022900008704FF480500B49091D086081100848F0
:1022A0000838FEF749FC044800680449086000BF8C
:1022B00000BF10BD900000201800002094000020F6
:1022C000080C0140100801409C04002008B54FF0A4
:1022D00000700A49486001210820FFF73BF94FF4DC
:1022E0009C70ADF8000048208DF8030003208DF8A5
:1022F000020069460248FEF749FB08BD00000140A4
:10230000000C0140FFF736F9FFF72CFFFEF730FF16
:10231000102334A200213220FFF7B4F8102332A298
:1023200014210020FFF7AEF80C2333A22321002054
:10233000FFF7A8F80C2334A234210020FFF7A2F8FD
:102340000C2333A234214020FFF79CF8FEF7EEFF68
:10235000FEF74AF9304800BF011EA0F10100FBDC86
:102360004FF480512D4A11602D4800684FF47A7265
:10237000B0FBF2F1B1F1807F00D31DE021F07F408E
:10238000401E4FF0E022506150170F22002807DA5C
:1023900013071D0E234B00F00F04241F1D5503E0EF
:1023A00013071C0E204B1C5400BF00204FF0E022EE
:1023B00090610720106100BFFFF70EFEFEF726FEBA
:1023C0000EE04FF480501549091D0860C820FFF742
:1023D000DBFE4FF4805011490860C820FFF7D4FE9F
:1023E000EFE700004C414E00302E393627204F4C8D
:1023F0004544205445535400362B37203230323177
:102400002F31322F3600000041534349493A000032
:10241000434F44453A000000801A0600100801406E
:102420000000002018ED00E000E400E01122334439
:102430005511223344550000000000000000000048
:102440000000000000003F4000000000000000000D
:102450003000400030004000000009000BC03D008B
:102460000BC03D00090018C024407FE022403180AD
:102470000000180024C01B000D8032400180038042
:102480001C4027401C8007400040100060000000F6
:102490000000000000000000000000001F8020403D
:1024A00040200000402020401F8000000000090064
:1024B00006001F80060009000000040004003F80A1
:1024C0000400040000000010006000000000000094
:1024D00000000400040004000400040000000000E8
:1024E00000400000000000000000002001C00600C5
:1024F0003800400000001F802040204020401F8006
:102500000000000010403FC000400000000018C064
:1025100021402240244018400000108020402440E8
:1025200024401B80000002000D0011003FC001404C
:1025300000003C80244024402440238000001F8071
:10254000244024403440038000003000200027C095
:102550003800200000001B802440244024401B80C1
:1025600000001C0022C0224022401F80000000000A
:1025700000000840000000000000000000000460AF
:10258000000000000000000004000A00110020808C
:10259000404009000900090009000900000000008E
:1025A0004040208011000A00040018002000234051
:1025B0002400180000001F802040274029401F40B1
:1025C0000000004007C039000F0001C0004020405B
:1025D0003FC0244024401B8000001F80204020403A
:1025E00020403080000020403FC0204020401F801D
:1025F000000020403FC024402E4030C0000020405A
:102600003FC024402E00300000000F00108020400A
:1026100022403380020020403FC0040004003FC03D
:102620002040204020403FC020402040000000606B
:10263000202020203FC02000200020403FC0244018
:102640000B0030C0204020403FC0204000400040F0
:1026500000C03FC03C0003C03C003FC00000204021
:102660003FC00C4023003FC020001F80204020407E
:1026700020401F80000020403FC02440240018005C
:1026800000001F802140214020E01FA000002040CA
:102690003FC02440260019C0004018C024402440F8
:1026A000224031800000300020403FC020403000F8
:1026B000000020003F80004000403F8020002000BC
:1026C0003E0001C0070038002000380007C03C0071
:1026D00007C038000000204039C0060039C0204043
:1026E00000002000384007C0384020000000304083
:1026F00021C02640384020C00000000000007FE0DC
:10270000402040200000000070000C0003800040CA
:1027100000000000402040207FE00000000000009A
:1027200020004000200000000000001000100010F9
:102730000010001000100000000040000000000029
:102740000000000002800540054003C0004020005A
:102750003FC00440044003800000000003800440A8
:1027600004400640000000000380044024403FC0B5
:1027700000400000038005400540034000000000C9
:1027800004401FC0244024402000000002E0055007
:1027900005500650042020403FC00440040003C000
:1027A00000400000044027C000400000000000106E
:1027B0000010041027E00000000020403FC001404E
:1027C000070004C00440204020403FC000400040BB
:1027D000000007C0040007C0040003C0000004405C
:1027E00007C00440040003C0004000000380044010
:1027F000044003800000041007F0045004400380EC
:102800000000000003800440045007F00010044062
:1028100007C002400400040000000000064005401C
:10282000054004C00000000004001F800440004078
:102830000000040007800040044007C0004004007E
:10284000070004C0018006000400060001C0070064
:1028500001C006000000044006C0010006C004409C
:1028600000000410071004E00180060004000000CE
:10287000044005C0064004400000000000000400C1
:102880007BE040200000000000000000FFF000009E
:102890000000000040207BE0040000000000400039
:1028A00080004000200020004000000000000000E8
:1028B0000000000000000000000000000000000018
:1028C0001FCC000C000000000000000008003000D9
:1028D00060000800300060000000022003FC1E20A1
:1028E000022003FC1E200220000000000E1811042C
:1028F0003FFF10840C78000000000F0010840F3898
:1029000000C0077818840078000000780F8410C495
:1029100011240E9800E4008400080800680070008C
:1029200000000000000000000000000000000000A7
:1029300007E01818200440020000000040022004B4
:10294000181807E00000000000000240024001806B
:102950000FF00180024002400000008000800080F3
:102960000FF800800080008000000001000D000EC4
:102970000000000000000000000000000080008057
:10298000008000800080008000800000000C000CAF
:102990000000000000000000000000000006001819
:1029A00000600180060018002000000007F0080801
:1029B00010041004080807F00000000008040804D0
:1029C0001FFC000400040000000000000E0C1014A6
:1029D0001024104411840E0C000000000C18100488
:1029E0001104110412880C700000000000E00320A4
:1029F000042408241FFC0024000000001F981084F9
:102A000011041104108810700000000007F00888FD
:102A10001104110418880070000000001C00100050
:102A200010FC13001C001000000000000E381144C0
:102A30001084108411440E38000000000700088C38
:102A400010441044088807F0000000000000000057
:102A5000030C030C00000000000000000000000157
:102A6000010600000000000000000000008001409E
:102A70000220041008081004000002200220022096
:102A8000022002200220022000000000100408089A
:102A90000410022001400080000000000E0012001F
:102AA000100C106C10800F00000003E00C1813E4F1
:102AB000142417C4082807D000000004003C03C4F5
:102AC0001C40074000E4001C000410041FFC11041B
:102AD000110411040E880070000003E00C181004AB
:102AE0001004100410081C10000010041FFC100437
:102AF00010041004080807F0000010041FFC110463
:102B0000110417C410040818000010041FFC11045D
:102B1000110017C010000800000003E00C1810049A
:102B2000100410441C780040000010041FFC1084A6
:102B30000080008010841FFC1004000010041004AA
:102B40001FFC10041004000000000003000110012D
:102B500010011FFE10001000000010041FFC1104E3
:102B600003801464181C1004000010041FFC1004DF
:102B7000000400040004000C000010041FFC1F00EF
:102B800000FC1F001FFC1004000010041FFC0C04BC
:102B9000030000E010181FFC100007F008081004E4
:102BA00010041004080807F0000010041FFC108433
:102BB0001080108010800F00000007F0081810240B
:102BC0001024101C080A07F2000010041FFC110456
:102BD000110011C011300E0C000400000E1C110475
:102BE0001084108410441C380000180010001004D9
:102BF0001FFC100410001800000010001FF8100443
:102C00000004000410041FF8100010001E0011E062
:102C1000001C007013801C0010001FC0103C00E05E
:102C20001F0000E0103C1FC000001004180C1634F8
:102C300001C001C01634180C100410001C0013044D
:102C400000FC13041C00100000000804101C106499
:102C5000108413041C041018000000000000000081
:102C60007FFE4002400240020000000030000C00E5
:102C700003800060001C00030000000040024002CE
:102C800040027FFE00000000000000000000200065
:102C90004000400040002000000000010001000151
:102CA000000100010001000100010000400040009F
:102CB0002000000000000000000000000098012437
:102CC00001440144014400FC000410001FFC008882
:102CD00001040104008800700000000000700088FA
:102CE0000104010401040088000000000070008855
:102CF0000104010411081FFC0004000000F8014455
:102D000001440144014400C8000000000104010422
:102D10000FFC1104110411001800000000D6012955
:102D20000129012901C90106000010041FFC0084CB
:102D300001000100010400FC00040000010419046A
:102D400019FC000400040000000000000003000162
:102D50000101190119FE0000000010041FFC0024ED
:102D6000004001B4010C0104000000001004100434
:102D70001FFC0004000400000000010401FC010429
:102D8000010001FC0104010000FC010401FC0084BD
:102D900001000100010400FC0004000000F801042F
:102DA00001040104010400F80000010101FF008595
:102DB0000104010400880070000000000070008819
:102DC00001040104010501FF00010104010401FCEB
:102DD00000840104010001800000000000CC0124F7
:102DE00001240124012401980000000001000100D9
:102DF00007F80104010400000000010001F80004CC
:102E000000040004010801FC0004010001800170BD
:102E1000000C001001600180010001F0010C003085
:102E200001C00030010C01F0010000000104018C20
:102E300000740170018C0104000001010181017125
:102E4000000E001801600180010000000184010CE7
:102E5000013401440184010C000000000000000066
:102E6000000001003EFC40024002000000000000A3
:102E70000000FFFF000000000000000040024002D0
:102E80003EFC010000000000000000006000800027
:102E900080004000400020002000000000000000F2
:102EA0000000000000000000000000000000000022
:102EB0000000000000000000000000000000000012
:102EC000000000000000000000000000000F80383B
:102ED0000FFE380F803800000000000000000000E6
:102EE00000000000000000000100000600000C00CF
:102EF000003800003100000600000C00003800001F
:102F00003000000000000000000061800067F8074A
:102F1000F98000618000618000618000618000674D
:102F2000F807F98000618000000000000000000048
:102F300001C0E003E0F00630080418081FFFFE049B
:102F40000E080787F00381E000000000000001F098
:102F500000060C00040408060C7001F9C0000E0005
:102F6000003BE000EC18070808040C180003E00020
:102F700000000001E00007F003F818041C08041723
:102F80000807E1D003C0E00023B0003C080020089F
:102F900000001000000000000001000031000032BD
:102FA00000001C0000000000000000000000000005
:102FB0000000000000000000000000000000000011
:102FC000000000000000000000007F0001FFC007BB
:102FD00080F00C0018100004200002000000000027
:102FE000002000021000040C00180780F001FFC050
:102FF000007F000000000000000000000000000052
:103000000000000000004200006600006600003C76
:103010000000180003FFC0001800003C000066001C
:1030200000660000420000000000080000080000E8
:10303000080000080000080001FFC00008000008A8
:103040000000080000080000080000000000000167
:1030500000003100003200001C00000000000000F1
:103060000000000000000000000000000000000060
:103070000000080000080000080000080000080028
:103080000008000008000008000008000008000018
:1030900000000000000000000000380000380000C0
:1030A00038000000000000000000000000000000E8
:1030B00000000000000000000000000600001C00EE
:1030C0000070000180000E0000380000C000070002
:1030D000001C0000300000000000000000007F80A5
:1030E00001FFE003807006001804000804000806D1
:1030F000001803807001FFE0007F800000000000E6
:103100000000000001000801000801000803FFF8AA
:1031100007FFF80000080000080000080000000099
:10312000000000000001C03802C0580400980401EB
:1031300018040218040418061C1803F81801E0F813
:1031400000000000000000000001C0E003C0F00427
:10315000000804080804080806180803F41801E722
:10316000F00001E00000000000000000000003008B
:10317000000D000011000061000081080301080734
:10318000FFF80FFFF8000108000108000000000030
:10319000000000E007FCD00608080610080610082A
:1031A000061008061838060FF00607C000000000D9
:1031B0000000000000003F8001FFE00384300208AF
:1031C00018041008041008041008071810030FF062
:1031D0000007C000000000000000000003C000075E
:1031E00000000600000600F80607F806180006E0D2
:1031F0000007000006000000000000000001E1E000
:1032000003F7F0063410041808041808040C080426
:103210000C0806161803F3F001C1E00000000000DE
:103220000000F80003FC300306380402080402081A
:103230000402080404100308F001FFC0007F00002E
:10324000000000000000000000000000000000007E
:103250000000703800703800703800000000000076
:10326000000000000000000000000000000000005E
:10327000000000000000301A00301C0000000000B8
:10328000000000000000000000000000000000003E
:1032900000080000140000220000410000808001AE
:1032A0000040020020040010080008000000000098
:1032B0000000210000210000210000210000210069
:1032C0000021000021000021000021000021000059
:1032D00000000000000000000800080400100200C8
:1032E0002001004000808000410000220000140006
:1032F00000080000000000000003C00004C000043B
:103300000000080038080F380808380810000C3092
:103310000007E00003C000000000000000003F8044
:1033200000FFE0038070020F1006708804C088045C
:103330008308047F8802C09003012000FE40000043
:10334000080000180001F8003E0801C20007020052
:1033500007E20000FE00001FC80001F8000038006E
:10336000000804000807FFF807FFF804080804082D
:103370000804080804080806180803F41801E7F010
:103380000001E0000000000000003F8001FFE003BA
:1033900080700200180400080400080400080400FB
:1033A000100600200780C000000004000807FFF896
:1033B00007FFF804000804000804000804001802CD
:1033C000001003807001FFE0007F80000000040017
:1033D0000807FFF807FFF8040808040808040808AD
:1033E000040808043E0804000806001801006000F4
:1033F000000004000807FFF807FFF80408080408A5
:1034000000040800040800043E0006000006000056
:10341000018000000000000000003F8001FFE00389
:103420008070060018040008040208040208020361
:10343000F00783F000020000020004000807FFF814
:1034400007FFF80408080008000008000008000052
:10345000080004080807FFF807FFF8040008000048
:103460000000000004000804000804000807FFF83A
:1034700007FFF8040008040008040008000000002A
:10348000000000000000000600000700000104002A
:103490000104000104000307FFFE07FFFC04000015
:1034A00004000004000004000807FFF807FFF80408
:1034B0000C08001800003E0004C7800503C8060081
:1034C000F804003804001800000804000807FFF89A
:1034D00007FFF804000800000800000800000800CA
:1034E0000008000008000018000060000000040050
:1034F0000807FFF807800807FC00007FC00003F8FA
:103500000007C000780007800807FFF807FFF804ED
:10351000000804000807FFF807000803C00000E0E7
:1035200000003800001E000007000001C00400F089
:1035300007FFF8040000000000007F8001FFE003A7
:103540008070060018040008040008060018030034
:103550003001FFE0007F8000000004000807FFF852
:1035600007FFF80404080404000404000404000431
:103570000400060C0003F80001F000000000000049
:1035800000007F8001FFE00380700600880400884F
:103590000400C806003C03003E01FFE6007F8400F3
:1035A000000004000807FFF807FFF80408080408F3
:1035B00000040C00040F00040BC00610F003F038E8
:1035C00001E00800000800000001E0F803F0300608
:1035D0003010041808041808040C08040C0802062B
:1035E000180207F00781E0000000018000060000DB
:1035F00004000004000004000807FFF807FFF804B7
:10360000000804000004000006000001800004001F
:103610000007FFE007FFF0040018000008000008A2
:1036200000000800000800000804001007FFE00484
:10363000000004000006000007E00007FE00041F71
:10364000E00001F80000380001E0043E0007C0007F
:1036500006000004000004000007E00007FFC004AB
:103660001FF80007C007F80007FF80043FF80007B5
:10367000C004F80007000004000000000004000877
:1036800006001807C07805F1C8003E00001F80043E
:1036900063E80780F8060018040008000000040032
:1036A0000006000007800007E008047C08001FF8FF
:1036B0000007F800180804E00807000006000004EE
:1036C00000000000000100080600380400F80403B0
:1036D000E8040F08047C0805F00807C00807001874
:1036E0000400600000000000000000000000000076
:1036F00000000000003FFFFE20000220000220002A
:103700000220000220000200000000000000000073
:1037100008000007000000C000003800000600009C
:1037200001C000003000000E000001000000000099
:103730000000000020000220000220000220000201
:103740002000023FFFFE000000000000000000001B
:103750000000000000000000000000080000100051
:1037600000300000200000300000100000080000C1
:103770000000000000000000010000010000010046
:103780000001000001000001000001000001000034
:103790000100000100000100000100000000000025
:1037A00000000020000020000010000010000000B9
:1037B0000000000000000000000000000000000009
:1037C000000000F00019F8001B180022080026086D
:1037D000002408002410003FF8001FF80000080033
:1037E000001800000004000007FFF80FFFF00018A9
:1037F00018001008002008002008003018001FF0F2
:10380000000FC00000000000000007C0001FF00013
:103810001830002008002008002008003C08001C88
:10382000100000600000000000000000000007C061
:10383000001FF000381800200800200800200804AD
:10384000101007FFF80FFFF000001000000000004C
:10385000000000000007C0001FF000123000221816
:10386000002208002208003208001E10000E20006E
:10387000000000000000200000200800200801FFD8
:10388000F803FFF806200804200804200807200099
:1038900003000000000000000000000E000E6E009B
:1038A0001FF30031B10020B10020B1003191001FA1
:1038B00013002E1E00200E0030000000000400083F
:1038C00007FFF80FFFF8001008002000002000009C
:1038D0002008003FF8001FF800000800000000006A
:1038E00000000000002008002008002008063FF823
:1038F000063FF80000080000080000080000000073
:103900000000000000000000000003000003002091
:1039100001002001002003063FFE063FFC000000DE
:1039200000000000000000000004000807FFF80F7E
:10393000FFF8000188000300002FC00038F80020C5
:10394000380020080000080000000000000000000F
:1039500004000804000804000807FFF80FFFF8003F
:10396000000800000800000800000000000000201F
:1039700008003FF8003FF8001008002000003FF862
:10398000003FF8001008002000003FF8003FF8005A
:103990000008000000002008003FF8003FF8001079
:1039A00008001000002000002008003FF8001FF869
:1039B0000000080000000000000007C0000FF00039
:1039C00018300030080020080020080030080018D7
:1039D00030000FF00007C0000000000000002001D0
:1039E000003FFF003FFF00101100200900200800E9
:1039F0002008003038001FF0000FC0000000000059
:103A0000000007C0001FF000381800200800200840
:103A1000002009001011001FFF003FFF00000100FF
:103A20000000002008002008002008003FF8003FA8
:103A3000F8000808001008002008002000003000EE
:103A4000003000000000000000000000000C7800C2
:103A50001E180033080023080021080021880021D7
:103A6000980030F0003860000000000000002000E6
:103A700000200000200000FFF003FFF800200800F5
:103A800020080020080000300000000000000000B6
:103A900000002000003FF0007FF800001800000840
:103AA000000008002010003FF8007FF00000100028
:103AB0000000000000002000003000003C00003F3B
:103AC000800023F0000078000070002380003C009C
:103AD000003000002000002000003C00003FE0001B
:103AE00023F80000E0002700003E00003FE0002136
:103AF000F80001E0003E0000200000000000200867
:103B0000002008003838003E680027800003C80005
:103B10002CF80038380020180020080000000000B1
:103B200000002000003003003C01003F830023EC34
:103B3000000070002380003C0000200000200000F6
:103B400000000000000000000038080020380020BD
:103B5000F80023E8002F88003E08003808002018ED
:103B600000007000000000000000000000000000E5
:103B700000000000000008000014001FF7FC3000E7
:103B8000062000020000000000000000000000000D
:103B9000000000000000000000000000FFFFFF0028
:103BA0000000000000000000000000000000000015
:103BB000000000002000023000061FF7FC00140087
:103BC00000080000000000000000000000000000ED
:103BD00000000000001800006000004000004000ED
:103BE0000020000010000008000004000004000095
:103BF0000C00001000000000000000000000002F7A
:103C0000000000000700070000147F147F14002448
:103C10002A7F2A1200626408132300364955225075
:103C200000000503000000001C22410000004122AA
:103C30001C000014083E08140008083E0808000094
:103C400000A060000008080808080000606000008C
:103C5000002010080402003E5149453E0000427F0A
:103C60004000004261514946002141454B31001856
:103C700014127F10002745454539003C4A49493018
:103C800000017109050300364949493600064949D2
:103C9000291E0000363600000000563600000008DD
:103CA00014224100001414141414000041221408BA
:103CB00000020151090600324959513E007C12119F
:103CC000127C007F49494936003E41414122007F34
:103CD0004141221C007F49494941007F09090901EE
:103CE000003E4149497A007F0808087F0000417F73
:103CF0004100002040413F01007F08142241007F25
:103D000040404040007F020C027F007F0408107F8B
:103D1000003E4141413E007F09090906003E4151F4
:103D2000215E007F091929460046494949310001B1
:103D3000017F0101003F4040403F001F2040201F05
:103D4000003F4038403F00631408146300070870C8
:103D5000080700615149454300007F41410000557B
:103D60002A552A55000041417F0000040201020447
:103D70000040404040400000010204000020545434
:103D80005478007F48444438003844444420003884
:103D90004444487F00385454541800087E090102F6
:103DA0000018A4A4A47C007F080404780000447DCB
:103DB0004000004080847D00007F10284400000007
:103DC000417F4000007C04180478007C08040478DB
:103DD00000384444443800FC2424241800182424C7
:103DE00018FC007C080404080048545454200004C3
:103DF0003F444020003C4040207C001C2040201CD0
:103E0000003C4030403C004428102844001CA0A046
:103E1000A07C004464544C44141414141414000082
:103E20000000000000000000000000000000000092
:103E300000F8000000000000003330000000001017
:103E40000C06100C0600000000000000000040C03E
:103E50007840C0784000043F04043F040400007030
:103E600088FC08300000001820FF211E0000F00828
:103E7000F000E018000000211C031E211E0000F0CD
:103E80000888700000001E21232419272110101615
:103E90000E00000000000000000000000000000014
:103EA00000E0180402000000000718204000000293
:103EB0000418E00000000040201807000000404007
:103EC00080F0804040000202010F01020200000069
:103ED00000F0000000000101011F010101000000CD
:103EE00000000000000080B0700000000000000032
:103EF00000000000000000010101010101010000BB
:103F00000000000000000030300000000000000051
:103F1000000080601804006018060100000000E046
:103F200010080810E000000F102020100F000010F3
:103F300010F8000000000020203F2020000000704A
:103F40000808088870000030282422213000003042
:103F50000888884830000018202020110E0000003A
:103F6000C02010F8000000070424243F240000F8BB
:103F70000888880808000019212020110E0000E0A0
:103F8000108888180000000F112020110E00003842
:103F90000808C83808000000003F0000000000705A
:103FA000880808887000001C222121221C0000E0E3
:103FB00010080810E0000000312222110F0000005C
:103FC00000C0C00000000000003030000000000011
:103FD0000080000000000000806000000000000081
:103FE000804020100800000102040810200040401A
:103FF000404040404000040404040404040000085D
:104000001020408000000020100804020100007011
:1040100048080808F0000000003036010000C030F9
:10402000C828E810E0000718272423140B0000001C
:10403000C038E0000000203C23020227382008F8A6
:10404000888888700000203F202020110E00C0309A
:10405000080808083800071820202010080008F871
:1040600008080810E000203F202020100F0008F86A
:104070008888E8081000203F20202320180008F836
:104080008888E8081000203F200003000000C030AE
:1040900008080838000007182020221E020008F82F
:1040A00008000008F808203F210101213F200008F6
:1040B00008F8080800000020203F20200000000031
:1040C0000808F8080800C08080807F00000008F819
:1040D00088C028180800203F20012638200008F852
:1040E000080000000000203F20202020300008F8B9
:1040F000F800F8F80800203F003F003F200008F8D3
:1041000030C00008F808203F200007183F00E010EA
:1041100008080810E0000F10202020100F0008F8F9
:1041200008080808F000203F210101010000E0100C
:1041300008080810E0000F18242438504F0008F831
:10414000888888887000203F2000030C3020007091
:104150008808080838000038202121221C0018088F
:1041600008F8080818000000203F2000000008F8A8
:1041700008000008F808001F202020201F000878F1
:10418000880000C83808000007380E010000F80851
:1041900000F80008F800033C0700073C030008187B
:1041A00068808068180820302C03032C30200838E1
:1041B000C800C83808000000203F20000000100898
:1041C0000808C838080020382621202018000000E0
:1041D00000FE020202000000007F40404000000C90
:1041E00030C000000000000000010638C0000002DE
:1041F0000202FE000000004040407F00000000007E
:1042000004020202040000000000000000000000A0
:10421000000000000000808080808080808000029C
:104220000204000000000000000000000000000088
:104230008080808000000019242222223F2008F87C
:10424000008080000000003F112020110E000000BF
:10425000008080800000000E11202020110000004E
:1042600000808088F800000E112020103F20000000
:10427000808080800000001F222222221300008004
:1042800080F0888888180020203F2020000000004F
:10429000808080808000006B94949493600008F884
:1042A000008080800000203F210000203F2000800F
:1042B0009898000000000020203F2020000000000F
:1042C00000809898000000C08080807F000008F87F
:1042D000000080808000203F24022D302000000854
:1042E00008F8000000000020203F2020000080800F
:1042F000808080808000203F20003F20003F808021
:10430000008080800000203F210000203F2000002E
:10431000808080800000001F202020201F008080DF
:1043200000808000000080FFA12020110E0000000E
:10433000008080808000000E112020A0FF808080FF
:1043400080008080800020203F21200001000000AC
:104350008080808080000033242424241900008081
:1043600080E0808000000000001F2020000080808E
:10437000000000808000001F202020103F2080804F
:1043800080000080808000010E30080601008080DF
:104390000080008080800F300C030C300F00008004
:1043A0008000808080000020312E0E31200080802F
:1043B00080000080808080818E701806010000805F
:1043C0008080808080000021302C2221300000007D
:1043D0000000807C020200000000003F404000001E
:1043E0000000FF00000000000000FF0000000002CD
:1043F000027C800000000040403F000000000006FA
:10440000010102020404000000000000000000009E
:104410006F6666736574207468723A202564202084
:10442000206F66667365742070697463683A20252E
:10443000642020206F6666736574207961773A2066
:1044400025642020206F666673657420726F6C6C23
:104450003A202564200D0A0078440008000000205E
:104460009C000000B81F0008144500089C000020B4
:104470000C080000C81F000800A24A040000000049
:104480000000000001020304060708090000000004
:10449000000000000000000000010203040102030C
:1044A00004060708090204060800000000000000D6
:1044B000000000000000000000000000CDAB103242
:1044C0000000000004010000E803E803E803E8033B
:1044D000E803E803E803E803E803E803E80300006F
:1044E000AAAF031B00000000000000000000000055
:1044F00000000000000000000000000000000000BC
:1045000000000000000000000000000000000000AB
:0445100000000000A7
:04000005080000ED02
:00000001FF
