:020000040800F2
:10000000180D002001010008912E0008111E0008A3
:100010006929000841130008DD41000800000000C4
:10002000000000000000000000000000453600084D
:10003000C3130008000000003531000859370008DC
:100040001B0100081B0100081B0100081B01000820
:100050001B0100081B0100081B0100081B01000810
:100060001B0100081B0100081B0100081B01000800
:100070001B0100081B0100081B0100081B010008F0
:100080001B0100081B0100081B0100081B010008E0
:100090001B0100081B0100081B0100081B010008D0
:1000A0001B0100081B0100081B0100081B010008C0
:1000B000293800081B0100081B0100081B0100086B
:1000C0001B0100081B0100081B0100081B010008A0
:1000D0001B010008AD3D00081B010008593F000846
:1000E0001B0100081B0100081B010008DFF80CD0F1
:1000F00000F0ECFB00480047194B0008180D0020E9
:100100000648804706480047FEE7FEE7FEE7FEE7B1
:10011000FEE7FEE7FEE7FEE7FEE7FEE769370008D9
:10012000ED00000840EA01039B0703D009E008C97D
:10013000121F08C0042AFAD203E011F8013B00F8AC
:10014000013B521EF9D27047D2B201E000F8012BF8
:10015000491EFBD270470022F6E710B513460A4647
:1001600004461946FFF7F0FF204610BDF0B480EAC0
:100170000102D40F4200B2EB410F02D20246084600
:1001800011464A0042D0C30DDDB2C1F3C752AD1AC9
:10019000202D35DAC1F3160141F4000204B15242B8
:1001A000C5F1200602FA06F12A411044B3EBD05FF4
:1001B00023D0C4B1012DA0EBC35009DCF0BC4FF03B
:1001C000004202EAC352DBB200F5000000F0B2BA0E
:1001D000400000F1807000EBC350A0F1807040EA55
:1001E000D170490009E0490841EAC071A0EBC35051
:1001F00000F50000400800EBC350F0BC00F091BADD
:100200006142012202EB4101001BF6E7F0BC70479E
:1002100081F00041AAE780F00040A7E780EA0102F0
:1002200010B502F00043400022D04A001FD0010E5A
:1002300001EB1261C0F35600C2F3560240F4000015
:1002400042F40002A0FB022000047F39140400D015
:10025000401C50EA124001D44000491EC2B20C06B4
:1002600004EBD010401C4008802A02D003E000209C
:1002700010BD20F00100002900DA0020184310BD55
:1002800030B480EA010202F0004530F0004221F073
:10029000004013D090B1C30DD40DC2F31601C0F3CA
:1002A0001600E41A41F4000140F400027D3491424A
:1002B00001D3641C00E04900002C02DA30BC0020AD
:1002C00070474FF400000023914201D3891A034381
:1002D00040084FEA4101F7D151B1914202D14FF0AC
:1002E000004105E002D24FF0010101E06FF0010191
:1002F00003EBC450284430BC00F013BA2DE9FE4F84
:10030000804681EA0300C00F0C46009021F00041B6
:1003100023F00045B8EB0200A94105D24046214632
:1003200090461C460B46024623F00040104347D03F
:10033000270DC7F30A00C3F30A510290401A019037
:1003400040286BDAC3F3130040F4801B00989246F8
:1003500020B10023D2EB030A63EB0B0B0198594643
:10036000C0F14002504600F0BBF906460D4650462B
:100370005946019A00F0C3F910EB080061410024CE
:1003800087EA115284EAE7731A4340D0009A62B3B5
:10039000019A012A4FEA075215DC001B61EB0201AA
:1003A0004FF0004202EA0752CDE90042001C41F53D
:1003B000801132462B4600F0FAF903B0BDE8F08F09
:1003C00040462146F9E7001B61EB0201001C41F5A4
:1003D000801300185B412018A2F5001747EB0301BA
:1003E00040EAD570B6196D4111E06D084FEA360646
:1003F00045EAC0754FEA0752001B61EB0201001C81
:1004000041F5801149084FEA300000195141324648
:100410002B4603B0BDE8F04F00F0BAB900980122B6
:1004200040000023D0EB020263EBE073009821460A
:100430004FEAE074B8EB000061EB0401E9E783F0F8
:1004400000435BE781F0004158E72DE9FE4F81EA68
:10045000030404F0004421F0004100944FF0000B2D
:1004600023F0004350EA01045ED052EA03045BD05B
:10047000C3F30A54C1F30A552C44A4F2F334019493
:10048000A0FB0254C1F3130141F48011C3F3130321
:1004900043F4801301FB024400FB034E840A970AD5
:1004A00044EA815447EA8357A4FB076802958D0A02
:1004B00005FB07854FEA932C04FB0C542705029D8E
:1004C0004FEA065847EA1637B5EB08056EEB070CFE
:1004D000870E920E47EA811742EA8312A7FB0201B8
:1004E000B6EB0B0164EB00042B0D43EA0C335E18F2
:1004F00044EB1C50DA465146E7FB0201C5F31304F6
:100500004FEA0B3343EA14534FEA0432019C43EAA7
:100510000603A4F10C040294009CCDE900B400F0A1
:1005200046F903B0BDE8F08F00200146F9E72DE958
:10053000F04D81EA030404F0004B21F0004514461D
:100540004FF0000A23F0004150EA050220D054EA9F
:1005500001021DD0C5F30A570246C5F31303C1F3C8
:100560001300C1F30A5640F4801543F48013A7EB3F
:100570000608101BD64608F2FD3873EB050002D3BF
:1005800008F1010801E092185B41B8F1000F03DAAD
:1005900000200146BDE8F08D00204FF48011064692
:1005A00084460EE0171B73EB050705D3121B63EBA4
:1005B000050306434CEA010C49084FEA3000921843
:1005C0005B4150EA0107EDD152EA030012D082EA02
:1005D000040083EA0501084305D0101BAB4106D295
:1005E0000122002306E000224FF0004302E06FF0FA
:1005F000010253101AEB06004CEB085110EB0A00F5
:1006000041EB0B01BDE8F04D00F0C2B8C10F80EA2C
:10061000E0700844CA079623002100F08BB89623A7
:100620000022114600F086B800F0004220F00040A1
:10063000C10DC0F3160040F400007F2901DA00204C
:100640007047962903DCC1F19601C84001E0963954
:100650008840002AF4D04042704700F0004230F059
:1006600000400AD0C10D01F56071C0F3160042EAE6
:100670000151C208400711437047002001467047EE
:1006800001F0004330B421F0004150EA010206D0ED
:100690000A0DA2F56072C1F31301002A02DC30BC1E
:1006A00000207047440F44EAC104C100E01830BC88
:1006B00000EBC25000F035B8002801DBC0F100406B
:1006C000002901DBC1F1004181427047002801DBB4
:1006D000C0F10040002901DBC1F1004188427047B0
:1006E000202A04DB203A00FA02F1002070479140F2
:1006F000C2F1200320FA03F3194390407047202AE7
:1007000006DBCB17203A41FA02F043EAE07306E039
:1007100041FA02F3D040C2F1200291400843194649
:1007200070470029A8BF7047401C490008BF20F04F
:100730000100704710B4B0FA80FC00FA0CF050EAE7
:10074000010404BF10BC704749B1CCF1200421FA68
:1007500004F411FA0CF118BF012121430843A3EB63
:100760000C01CB1D4FEA00614FEA102042BF002070
:1007700010BC704700EBC35010440029A4BF10BC4C
:100780007047401C490008BF20F0010010BC7047B2
:1007900010B5141E73F1000408DA401C41F1000189
:1007A00092185B411A4301D120F0010010BD2DE9E0
:1007B000F04D92469B4611B1B1FA81F202E0B0FAD7
:1007C00080F220329046FFF78BFF04460F4640EA46
:1007D0000A0041EA0B0153465A46084313D011461A
:1007E00053EA010019D0C8F14002504600F080F8E9
:1007F00005460E46504659464246FFF771FF0843EC
:1008000005D0012004E020463946BDE8F08D0020E7
:10081000054346EAE0762C4337430A986305E40A29
:10082000A0EB08000022FD0A44EA47540A3002D532
:1008300000200146E9E7010510196941DDE9084595
:1008400000196941BDE8F04DA2E770B521F0004301
:1008500003430CD0C1F30A550024D5EB040564EB27
:100860000403D617AD1AB34102DB0020014670BD68
:10087000201841EB025170BD0EB5C10F80EAE07047
:100880000844CA07002140F233438DE80E000A46AF
:100890000B46FFF78CFF03B000BD000030B5041E0F
:1008A00071F1000404DB4FF00044404264EB0101AD
:1008B000141E73F1000405DB1C464FF00043524246
:1008C00063EB0403994208BF904230BD064C074DCC
:1008D00006E0E06840F0010394E807009847103410
:1008E000AC42F6D3FFF706FCF85E0008185F00087C
:1008F000202A04DB203A21FA02F00021704721FA75
:1009000002F3D040C2F120029140084319467047DB
:100910002DE9F04D00231A461B1A8A4103DB002003
:100920000146BDE8F08DC1F30A52C1F3130141F451
:1009300080154FF0000BD10702D100186D41521EF7
:100940000027044640F2FF11384601EB620A3E469A
:100950008046024600204FF48011FFF7C9FFC219FC
:100960007141BB1846EB0100B4EB030C75EB000CB6
:1009700004D3E41A65EB000517460E46241908F166
:1009800001006D4180463428E3DDF91946EB06008D
:10099000091BA84103D24FF0FF32134601E00022A9
:1009A00013461BEB070046EB0A51BDE8F04DFFF77D
:1009B000EFBE70B58C1810F8015B15F0070301D17C
:1009C00010F8013B2A1106D110F8012B03E010F8B2
:1009D000016B01F8016B5B1EF9D12B0705D40023D5
:1009E000521E0DD401F8013BFAE710F8013BCB1A77
:1009F000921C03E013F8015B01F8015B521EF9D56C
:100A0000A142D8D3002070BD21B1826842F001021A
:100A1000826003E0826822F0010282607047014632
:100A2000C86C80B270470246002013680B400BB1BF
:100A3000012000E00020704730B50246002000236E
:100A400050680F4C20400D790C6844EA052420437F
:100A5000506090680B4C2040D1E902542C434D79F2
:100A600044EA450420439060D06A20F470000C7C76
:100A7000641EE4B2234340EA0350D06230BD00005C
:100A8000FFFEF0FFFDF7F1FFF0B504460D46002034
:100A90000021092D11DDE068A5F10A0606EB4607E5
:100AA000072606FA07F18843A5F10A0606EB460673
:100AB00003FA06F10843E0600CE0206905EB450706
:100AC000072606FA07F1884305EB450603FA06F107
:100AD00008432061072A0FDA606B561E06EB860773
:100AE0001F2606FA07F18843561E06EB860605FA0E
:100AF00006F10843606322E00D2A0FDA206BD61F4F
:100B000006EB86071F2606FA07F18843D61F06EB79
:100B1000860605FA06F10843206310E0E06AA2F1B8
:100B20000D0606EB86071F2606FA07F18843A2F199
:100B30000D0606EB860605FA06F10843E062F0BDF5
:100B400021B1826842F4A002826003E0826822F44C
:100B5000A00282607047000010B501F0A9FE00F00D
:100B6000B7FB01F01FFC04F0CDFE01F041FE01F0E7
:100B700019FC04F05BF802F04DF9054803F06EFA39
:100B800002F08AFA02F0AEFE02F01EFE10BD000076
:100B900020A1070010B5044694F9020011281FD0C7
:100BA00008DC012839D0022838D0032837D0102893
:100BB00036D108E0122820D013282BD014282AD0B0
:100BC00015282DD128E01848007820F00100401C9D
:100BD000154908701222211D1448FFF7A3FA20E0DE
:100BE0001222211D1248FFF79DFA0F48007820F0CD
:100BF0000200801C0C49087013E01222211D0D48D0
:100C0000FFF790FA0848007820F00400001D06491C
:100C1000087006E005E004E003E002E001E000E027
:100C200000BF00BF10BD000089020020E8040020C2
:100C3000FA0400200C0500202DE9F04F87B007468C
:100C4000022601AC4FF000084FF000094FF0000AF7
:100C5000162F7CD2DFE807F07BD6C793FCFB91FA16
:100C60007B7B7BF97B7B7B7B0B12191E1F20DFF8C4
:100C7000E482DFF8E492DFF8E4A20EE0DFF8E0823D
:100C8000DFF8E092DFF8E0A207E0DFF8E082DFF8CB
:100C9000E09202E000BF00BF00BFB8F1000F20D01B
:100CA000D8F81000B349FFF7B9FA8346FFF7BCFC48
:100CB00000B2ADF80800D8F81400AE49FFF7AEFA5C
:100CC0008346FFF7B1FC00B2ADF80A00D8F818006F
:100CD000A849FFF7A3FA8346FFF7A6FC00B2ADF8D8
:100CE0000C00B9F1000F20D0D9F81000A149FFF78E
:100CF00095FA8346FFF798FC00B2ADF80E00D9F8DC
:100D000014009C49FFF78AFA8346FFF78DFC00B276
:100D1000ADF81000D9F818009649FFF77FFA83461E
:100D2000FFF782FC00B2ADF81200BAF1000F22D03A
:100D3000DAF810008F49FFF771FA8346FFF774FC69
:100D400000B2ADF81400DAF814008A4900E0CBE0F4
:100D5000FFF764FA8346FFF767FC00B2ADF81600B0
:100D6000DAF818008349FFF759FA8346FFF75CFC6D
:100D700000B2ADF818001226B7E00826B5E07E48AC
:100D8000808800B2ADF808007B48C08800B2ADF89A
:100D90000A007948008800B2ADF80C007648408817
:100DA00000B2ADF80E007448008900B2ADF8100032
:100DB0007148408900B2ADF812006F48808900B2D6
:100DC000ADF814006C48C08900B2ADF816006A484E
:100DD000008A00B2ADF818006748408A00B2ADF84A
:100DE0001A00142681E06548016802914168039168
:100DF000806804906248016805918088ADF8180009
:100E0000122672E05F48006880F000405E49009062
:100E1000FFF704FA8346FFF707FC00B2ADF80800BD
:100E2000584948685849FFF7F9F98346FFF7FCFB32
:100E300000B2ADF80A005348806880F00040524983
:100E40000090FFF7EBF9834603E04CE049E03FE018
:100E500048E0FFF7E9FB00B2ADF80C000020ADF868
:100E60000E00ADF810004948407850B1012816D066
:100E7000022802D0032824D11EE00020ADF8120081
:100E800023E042480078012804D140F20110ADF877
:100E9000120003E04FF48070ADF8120015E03B48FB
:100EA0000078012803D14002ADF8120003E040F2BF
:100EB0000120ADF8120008E040F20130ADF8120058
:100EC00003E00020ADF8120000BF00BF0C260CE0CC
:100ED0004FF4D270ADF808000020ADF80A000226E9
:100EE00003E002E001E000E000BF00BF4AF6AA20F4
:100EF000ADF8040046EA072000B2ADF80600542120
:100F0000301D215402251AE06057691C6156484083
:100F10006055681C205661574840691C60546057F2
:100F2000615648406055615D681C205C0144301D7D
:100F3000205C084441B2301D2154A81CC5B2301DAC
:100F40008542E1DB701DC1B2204603F02BF907B0EA
:100F5000BDE8F08F300300206403002098030020D8
:100F600000040020CC03002034040020680400208A
:100F70009C04002000007A441C030020040300208D
:100F800020000020100300200000C842260000209E
:100F90002DE9F8438C48007820B1012806D00228BA
:100FA0006FD122E00120884908700AE10220FFF792
:100FB00043FE012003F064FD0120FFF73DFE012008
:100FC00003F05EFD0520FFF737FE012003F058FD1A
:100FD0000320FFF731FE012003F052FD7B4800782B
:100FE00010B1022078490870EBE07848007810B919
:100FF00001207549087075480078C0F38010B8B1B9
:101000001020FFF719FE012003F03AFD1120FFF731
:1010100013FE012003F034FD1220FFF70DFE012026
:1010200003F02EFD6948007820F040006749087001
:101030006648007800F03F0000287DD0002500269B
:1010400000276248007800F0010050B1604D614E09
:10105000614F624C5D48007820F001005B490870E8
:1010600020E05A480078C0F3400058B15C4D5D4E16
:101070005D4F5E4C5548007820F0020053490870DF
:1010800010E09DE051480078C0F3800048B1584D11
:10109000584E594C4D48007820F004004B490870D8
:1010A00000E08EE065B320788DF8010060788DF85F
:1010B0000000BDF80000FFF7B2FA80464F49FFF785
:1010C000DFF82861A0788DF80100E0788DF8000045
:1010D000BDF80000FFF7A3FA80464849FFF7D0F8B3
:1010E000686120798DF8010060798DF80000BDF805
:1010F0000000FFF794FA80464049FFF7C1F8A86165
:1011000076B3A0798DF80100E0798DF80000BDF884
:101110000000FFF784FA80463849FFF7B1F83061E4
:10112000207A8DF80100607A8DF80000BDF800008B
:10113000FFF775FA804600E041E03049FFF7A0F87C
:101140007061A07A8DF80100E07A8DF80000BDF89A
:101150000000FFF764FA80462849FFF791F8B06174
:1011600067B3207B8DF80100607B8DF80000BDF82F
:101170000000FFF754FA80462049FFF781F83861F4
:10118000A07B8DF80100E07B8DF80000BDF8000029
:10119000FFF745FA80461949FFF772F87861207C1D
:1011A0008DF80100607C8DF80000BDF80000FFF7AD
:1011B00036FA80461149FFF763F8B86100BF00E0D6
:1011C00000BF00BFBDE8F8838A020020890200202A
:1011D000300300206403002098030020E80400206E
:1011E00000040020CC03002034040020FA04002076
:1011F000680400209C0400200C05002000007A44B4
:101200002DE9F04706460F4614464FF000081A48ED
:101210001A49097840F8216018480078401C17499D
:10122000087008460078A04204DA1548007808B132
:10123000BDE8F087002012490870002508E00E483C
:1012400050F825104046FEF791FF8046681CC5B255
:10125000A542F4DB09480078A04202DB00200749E0
:1012600008702046FFF7DBF9814649464046FFF704
:1012700007F8386000BFDBE78C060020D4020020AE
:10128000D5020020F8B5012000F0A8FD0746FFF7C1
:10129000C6F9054606226946FFF7B2FF002100980D
:1012A000FFF70AFA08D008490098FEF7B7FF05468D
:1012B0000649FEF7E5FF04464FF080412046FEF761
:1012C000ADFF06463046F8BDEC51584000F07F4572
:1012D00000B587B001214FF4017001F071FF4FF4A8
:1012E000004001F051FF0220ADF8180000208DF8F9
:1012F0001B0006A9104800F005F900200190049099
:1013000001208DF8140000208DF808004FF46020B3
:10131000039000208DF8090001A90848FFF78CFB15
:1013200001210648FFF770FB0723012211460348FD
:10133000FFF7AAFB07B000BD0008014000240140F0
:1013400000BFFEE72DE9F14F84B000200290049821
:10135000FFF783F9804600220D4BFFF7E8F80D4AAE
:101360000D4BCDE9000103F095FC064600220B4B26
:10137000FFF768F804460022094BFFF766F882463B
:10138000FFF77EF90290029805B0BDE8F08F0000EB
:10139000D0BCF8406C45D9CC955BC83F0000F03F0D
:1013A00040A5E54070B506460C4615462946204640
:1013B00003F006FCA06A30602946304603F000FCCA
:1013C00070BD704770B5044642480078012806D0C9
:1013D0000B280BD01F2817D0FF286FD165E03E489F
:1013E000007810B10B203B4908706BE008213B48A6
:1013F00003F0D0FB00203A49486208603949886010
:101400001F20344908705DE03749B1F90600FFF745
:10141000FDF80546354801682846FEF7FFFE3449C9
:1014200048623149B1F90800FFF7F0F805462F4846
:1014300001682846FEF7F2FE2E4948622A49B1F9B2
:101440000A00FFF7E3F80546284801682846FEF73A
:10145000E5FE2949486223484068284948622148F6
:101460000068274948621F4880681D494862214634
:10147000234803F0A5FB2248806A1D4908602146E5
:101480001B4803F09DFB21461C4803F099FB1B48B9
:10149000806A184908602146164803F091FB2246ED
:1014A0000F491548FFF77EFF0CE008210B4803F0B9
:1014B00071FB01200749087004E0FFE7FF200549A0
:1014C000087000BF00BF0448007810B9FF20014930
:1014D000087070BDCC02002026000020A40200206D
:1014E000340400201003002004030020745D000871
:1014F000300300206403002098030020CC03002068
:10150000000400202DE9F0410246002500260020BD
:1015100000230024002791F803C00CF00F0591F878
:1015200003C00CF0100CBCF1000F03D091F802C006
:101530004CEA050591F800C0BCF1000F31D01468E9
:1015400000202BE04FF0010C0CFA00F3B1F800C0C2
:101550000CEA03069E4220D183004FF00F0C0CFAD8
:1015600003F7BC4305FA03FC4CEA040491F803C0FA
:10157000BCF1280F06D14FF0010C0CFA00FCC2F8A8
:1015800014C00AE091F803C0BCF1480F05D14FF038
:10159000010C0CFA00FCC2F810C0401C0828D1D382
:1015A0001460B1F800C0BCF1FF0F34DD54680020B6
:1015B0002EE000F1080C4FF0010808FA0CF3B1F826
:1015C00000C00CEA03069E4221D183004FF00F0CAD
:1015D0000CFA03F7BC4305FA03FC4CEA040491F847
:1015E00003C0BCF1280F05D100F1080C08FA0CF873
:1015F000C2F8148091F803C0BCF1480F07D100F184
:10160000080C4FF0010808FA0CF8C2F81080401CD2
:101610000828CED35460BDE8F08141617047016174
:101620007047000007B5A4B04FF07C512698FEF734
:10163000F5FD1190FE4880680D90FD4800680C9003
:101640000D99FEF7EBFD0F90F948C0680D90F84832
:1016500040680C900D99FEF7E1FD0E900F99FEF792
:10166000D7FD4FF080411090FEF7D8FD2090F04854
:10167000C0680D90EE4880680C900D99FEF7CEFD85
:101680000F90EB4840680D90E94800680C900D9968
:10169000FEF7C4FD0E900F99FEF768FD4FF08041F4
:1016A0001090FEF7BBFD2190E14880680C90E04867
:1016B00080680B900C99FEF7B1FD0E90DC484068F5
:1016C0000C90DB4840680B900C99FEF7A7FD0D903D
:1016D0000E99FEF74BFD4FF080410F90FEF79EFDF7
:1016E0004FF07E511090FEF796FD2290D148B0F950
:1016F00004000B90FEF78AFF0D90CE48B0F904006D
:101700000B90FEF783FF0C900D99FEF787FD0F906D
:10171000C848B0F902000990FEF778FF0B90C54861
:10172000B0F902000990FEF771FF0A900B99FEF7DD
:1017300075FD0D90BF48B0F900000990FEF766FFF7
:101740000B90BC48B0F900000990FEF75FFF0A90CB
:101750000B99FEF763FD0C900D99FEF707FD0E90B7
:101760000F99FEF703FD109001F0E6FCB249086006
:101770002498B0F900000F90FEF748FF1090AE4893
:1017800001681098FEF74AFD1D902498B0F90200F8
:101790000F90FEF73BFF1090A74801681098FEF7E6
:1017A0003DFD1E902498B0F904000F90FEF72EFF27
:1017B0001090A14801681098FEF730FD1F90219805
:1017C0000E901F980D900E99FEF728FD109022980C
:1017D0000E901E980D900E99FEF720FD0F90109917
:1017E000FEF716FD179022980E901D980D900E99F9
:1017F000FEF714FD109020980E901F980D900E99F2
:10180000FEF70CFD0F901099FEF702FD189020983E
:101810000E901E980D900E99FEF700FD10902198E5
:101820000E901D980D900E99FEF7F8FC0F901099F0
:10183000FEF7EEFC199017980F90804801680F98FA
:10184000FEF7ECFC10907E48006801460F9010985F
:10185000FEF78CFC7A49086018980F907748016869
:101860000F98FEF7DBFC10907548406801460F901A
:101870001098FEF77BFC7249486019980F906F48EA
:1018800001680F98FEF7CAFC10906D488068014609
:101890000F901098FEF76AFC694988601798014616
:1018A0000D9068480068FEF7B9FC0F902498B0F9D5
:1018B00006000C90FEF7AAFE0D90634801680D9893
:1018C000FEF7ACFC0E900F99FEF750FC10905C48B0
:1018D000006801460F901098FEF748FC1A9018987F
:1018E00001460D9057480068FEF798FC0F90249829
:1018F000B0F908000C90FEF789FE0D90524801687F
:101900000D98FEF78BFC0E900F99FEF72FFC1090B0
:101910004B48406801460F901098FEF727FC1B903B
:10192000199801460D9047480068FEF777FC0F9024
:101930002498B0F90A000C90FEF768FE0D9042481A
:1019400001680D98FEF76AFC0E900F99FEF70EFCE9
:1019500010903B48806801460F901098FEF706FCF7
:101960001C901C980D903248C0680C900D99FEF7A1
:1019700055FC0F901B980B902D4880680A900B998E
:10198000FEF74CFC0D902A48406880F000400B9018
:101990001A9801460A900B98FEF740FC0C900D999E
:1019A000FEF736FC0E900F99FEF732FC109011995D
:1019B000FEF734FC16901C980D901D4880680C9022
:1019C0000D99FEF72BFC0F901B980B901848C068E0
:1019D0000A900B99FEF722FC0D901A980B90144870
:1019E00000680A900B99FEF719FC0C900D99FEF710
:1019F0000FFC0E900F99FEF7B9FB10901199FEF7AE
:101A00000DFC15901C980D90094840680C900D999C
:101A1000FEF704FC0F901B980B90054800680A9095
:101A20000B99FEF7FBFB0D901A980B9000480DE008
:101A3000F002002004030020E4020020EC02002059
:101A40000C090020E8020020785D0008C0680A90B8
:101A50000B99FEF7E3FB0C900D99FEF787FB0E90B8
:101A60000F99FEF7D5FB10901199FEF7D7FB149054
:101A70001C980D90B94800680C900D99FEF7CEFBAC
:101A80000F901B980B90B54840680A900B99FEF791
:101A9000C5FB0D90B148806880F000400B901A980B
:101AA00001460A900B98FEF7B9FB0C900D99FEF7D2
:101AB0005DFB0E900F99FEF759FB10901199FEF700
:101AC000ADFB1390A548006810901699FEF74EFBE9
:101AD000A24908600846406810901599FEF746FB39
:101AE0009E4948600846806810901499FEF73EFBB6
:101AF0009A4988600846C06810901399FEF736FB33
:101B00009649C8600846C0680D900846C0680C90A9
:101B10000D99FEF783FB0F90904880680B908F48DB
:101B200080680A900B99FEF779FB0D908B4840680E
:101B300009908A48406808900999FEF76FFB0B905E
:101B40008648006809908548006808900999FEF762
:101B500065FB0A900B99FEF709FB0C900D99FEF7B7
:101B600005FB0E900F99FEF701FB109001F0E4FACF
:101B700012907A48006810901299FEF74FFB77494F
:101B800008600846406810901299FEF747FB7349B9
:101B900048600846806810901299FEF73FFB6F4935
:101BA00088600846C06810901299FEF737FB6B49B1
:101BB000C8602498B0F90A000E90FEF727FD0F9038
:101BC000674801680F98FEF729FB10906549109847
:101BD000FEF77CFD04D364491098FEF76DFD0DD22D
:101BE00026991098FEF71AFB0F90259880680146F9
:101BF0000E900F98FEF7BAFA259988605B48006846
:101C0000FEF72BFDCDE90C015448406801460390D6
:101C10004FF08040FEF702FB04905048C068014638
:101C200003900498FEF7FAFA06904C4800680146C3
:101C300003904FF08040FEF7F1FA04904748806827
:101C4000014603900498FEF7E9FA05900699FEF71D
:101C5000DFFA0790FEF701FDCDE9080102F0F6FB7F
:101C6000CDE90A01DDE90C23FEF7EFFBCDE90E011A
:101C7000FEF706FD259948603C480068FEF7EDFC3C
:101C8000CDE90C0135488068014601904FF0804055
:101C9000FEF7C4FA0290314880680146019002982C
:101CA000FEF7BCFA04902D484068014600904FF0C2
:101CB0008040FEF7B3FA0190284840680146009042
:101CC0000198FEF7ABFA4FF07E510290FEF7A3FAAF
:101CD00003900499FEF79CFA0590FEF7BEFCCDE94F
:101CE00008011E480068014601904FF08040FEF751
:101CF00095FA029019484068014601900298FEF753
:101D00008DFA049015488068014601904FF080409C
:101D1000FEF784FA02901148C068014601900298CB
:101D2000FEF77CFA03900499FEF720FA0590FEF77F
:101D300094FCCDE90601DDE9082302F0CFFDCDE9F1
:101D40000A01DDE90C23FEF780FBCDE90E01FEF769
:101D500097FC2599086027B000BD0000F002002024
:101D6000745D000800004040000040C06C5D000849
:101D700000BF0E4801684FF0E02082690B48006800
:101D80008142F6D10A48006800EB4003C3EBC01063
:101D9000C2EBC000064B1B68B0FBF3F001EB410344
:101DA000C3EBC11300EBC300704700001C00002010
:101DB0001400002008B5002000900649684603F092
:101DC000EBFE04480068FFF7BDFA034908600846C7
:101DD000006808BD600000206400002010B50446C3
:101DE0000723012221460948FEF74EFE012107483C
:101DF000FEF7A6FE00BF02210448FEF714FE0028ED
:101E0000F9D00248FEF70BFE10BD0000002401408F
:101E100000BFFEE770B505460E46002400F09AFBB1
:101E2000284600F065FB641C00F0ECFB304600F037
:101E30005FFB641C00F0E6FB00F08CFB691CC8B281
:101E400000F056FB641C00F0DDFB002000F0E6FA19
:101E5000044600F0B3FB204670BD000008B54020EA
:101E6000304908600120009004E09DF80000401E09
:101E7000C0B200909DF800000028F6D180202949CA
:101E800008600120009004E09DF80000401EC0B2F0
:101E900000909DF800000028F6D140202149091F3C
:101EA00008600120009004E09DF80000401EC0B2D0
:101EB00000909DF800000028F6D10120009004E079
:101EC0009DF80000401EC0B200909DF80000002860
:101ED000F6D10120009004E09DF80000401EC0B241
:101EE00000909DF800000028F6D10120009004E049
:101EF0009DF80000401EC0B200909DF80000002830
:101F0000F6D14020074908600120009004E09DF8C8
:101F10000000401EC0B200909DF800000028F6D1DD
:101F200008BD0000140C014008B54020304908608D
:101F30000120009004E09DF80000401EC0B2009017
:101F40009DF800000028F6D180202949091F08606B
:101F50000120009004E09DF80000401EC0B20090F7
:101F60009DF800000028F6D140202149091F086093
:101F70000120009004E09DF80000401EC0B20090D7
:101F80009DF800000028F6D10120009004E09DF8A3
:101F90000000401EC0B200909DF800000028F6D15D
:101FA0000120009004E09DF80000401EC0B20090A7
:101FB0009DF800000028F6D10120009004E09DF873
:101FC0000000401EC0B200909DF800000028F6D12D
:101FD0004020074908600120009004E09DF80000BF
:101FE000401EC0B200909DF800000028F6D108BD48
:101FF000140C014008B50821002080222C4B1A60E7
:102000004CE04206100E4022294B1B1D1A60012293
:10201000009204E09DF80020521ED2B200929DF87A
:102020000020002AF6D10122009204E09DF8002051
:10203000521ED2B200929DF80020002AF6D1402212
:102040001B4B1A600122009204E09DF80020521EF2
:10205000D2B200929DF80020002AF6D1012200920F
:1020600004E09DF80020521ED2B200929DF800209C
:10207000002AF6D10122009204E09DF80020521EB1
:10208000D2B200929DF80020002AF6D1084A083A00
:10209000126802F080020AB140F001000A00A1F1CA
:1020A0000103D9B2ADD14022014B1B1D1A6008BDFE
:1020B000100C014008B5082150E040222C4B1A605A
:1020C0000122009204E09DF80020521ED2B200923C
:1020D0009DF80020002AF6D100F0800222B1802273
:1020E000234B1B1F1A6002E08022214B1A6042061C
:1020F000100E0122009204E09DF80020521ED2B280
:1021000000929DF80020002AF6D14022184B1B1F98
:102110001A600122009204E09DF80020521ED2B203
:1021200000929DF80020002AF6D10122009204E0DE
:102130009DF80020521ED2B200929DF80020002A85
:10214000F6D10122009204E09DF80020521ED2B286
:1021500000929DF80020002AF6D100BF0A00A1F1EC
:102160000103D9B2A9D14022014B1A6008BD000079
:10217000140C014008B58020224908604020086006
:102180000120009004E09DF80000401EC0B20090C5
:102190009DF800000028F6D11A480838006808B9F0
:1021A000012000E0002000F0800008B1012008BDFF
:1021B00080201449091D08600120009004E09DF86A
:1021C0000000401EC0B200909DF800000028F6D12B
:1021D0000C480838006800F0800008B10120E6E7EC
:1021E00040200849091D08600120009004E09DF886
:1021F0000000401EC0B200909DF800000028F6D1FB
:1022000000BFD4E7100C014008B540202449086005
:102210000120009004E09DF80000401EC0B2009034
:102220009DF800000028F6D180201D49086001209B
:10223000009004E09DF80000401EC0B200909DF8A0
:1022400000000028F6D10120009004E09DF8000075
:10225000401EC0B200909DF800000028F6D140203A
:102260000F49091F08600120009004E09DF800005C
:10227000401EC0B200909DF800000028F6D18020DA
:102280000749091F08600120009004E09DF8000044
:10229000401EC0B200909DF800000028F6D108BD95
:1022A000140C014008B540202A4908600120009024
:1022B00004E09DF80000401EC0B200909DF80000B0
:1022C0000028F6D180202349091F086001200090D2
:1022D00004E09DF80000401EC0B200909DF8000090
:1022E0000028F6D140201B49091F086001200090FA
:1022F00004E09DF80000401EC0B200909DF8000070
:102300000028F6D10120009004E09DF80000401E56
:10231000C0B200909DF800000028F6D10120009086
:1023200004E09DF80000401EC0B200909DF800003F
:102330000028F6D107480C38006800F0800020B172
:10234000402004490860012008BD40200149086080
:102350000020F9E7140C014010B500200E49086078
:102360000E48006820F070400C490860084600687C
:1023700040F04050086000200949C1F89C0101204C
:1023800002F08FFB01200449086002F08AFB002064
:102390000349C1F8980110BD98812142000C014009
:1023A0000080214208B50121082000F009FFC0206B
:1023B000ADF8000003208DF8020014208DF8030012
:1023C00069460248FFF79EF808BD0000000C014076
:1023D00010B500200E4908600E48006820F07040DB
:1023E0000C4908600846006840F040500860012031
:1023F0000949C1F89C0102F054FB0120044908601E
:1024000002F04FFB00200449C1F8980110BD000004
:1024100098812142000C01400080214270B50546A0
:1024200000241748006820F07040154908600846ED
:10243000006840F000400860002616E000201149C6
:102440000860022002F02DFB01200F49C1F898011D
:102450006006040E0B487C38006808B1601CC4B2EA
:10246000022002F01EFB701CC6B2082EE6DB15B17E
:10247000FFF772FF01E0FFF7ABFF204670BD0000E1
:10248000000C0140988121420080214270B5044631
:102490000D460026FFF76EFE012800D170BD2046D4
:1024A000FFF708FEFFF7FEFE012803D1FFF7ACFEA1
:1024B0000120F3E72846FFF7FDFDFFF7F3FEFFF7E6
:1024C000A3FEFFF757FE611CC8B2FFF7F3FDFFF74D
:1024D000E9FE012803D1FFF797FE0120DEE7FFF7B1
:1024E00089FD0646FFF720FDFFF78EFE70B2D5E7A7
:1024F00070B504461448006820F070401249086026
:102500000846006840F04050086000200F4908600D
:10251000002516E0E0090D49091D08606006040E5B
:10252000012002F0BEFA01200949C1F8980102F029
:10253000B8FA002005490860012002F0B2FA681CD0
:10254000C5B2082DE6DB70BD000C01409881214228
:102550000080214210B51648006820F070401449F0
:1025600008600846006840F04050086001201149AA
:1025700008601148D0F81C0108B9002010BD0120E6
:102580000C49091F086002F08CFA00200A49C1F8C2
:102590009C0108488038006808B10020EEE701205F
:1025A00002F07FFA00200349091F08600120E5E7D7
:1025B000000C01409C8121420080214210B50E4850
:1025C000006820F070400C4908600846006840F040
:1025D000405008600020094908600949C1F89C0181
:1025E000012002F05EFA0120044908600449C1F8A4
:1025F0009C0102F056FA10BD000C01409881214266
:102600000080214210B500241548006820F0704079
:10261000134908600846006840F000400860012047
:102620001049086002F03DFA01200F49C1F89801F5
:1026300002F037FA0AE0601CC4B2322C03DDFFF767
:10264000BDFF002010BD012002F02BFA05488038A4
:1026500000680028EFD10349091F08600120F1E755
:10266000000C01409C8121420080214270B5064649
:102670000C461546FFF77EFD012800D170BD30469F
:10268000FFF718FDFFF70EFE012803D1FFF7BCFD91
:102690000120F3E72046FFF70DFDFFF703FE284674
:1026A000FFF708FDFFF7FEFDFFF7AEFD0020E5E7B1
:1026B0002DE9F04106460F4615461C46FFF75AFD28
:1026C000012801D1BDE8F0813046FFF7F3FCFFF7A8
:1026D000E9FD012803D1FFF797FD0120F2E7384615
:1026E000FFF7E8FCFFF7DEFDFFF78EFDFFF742FD89
:1026F000711CC8B2FFF7DEFCFFF7D4FD012803D13F
:10270000FFF782FD0120DDE70CE0FFF773FC287086
:10271000012C02D1FFF708FC01E0FFF79FFB6D1CC5
:10272000601EC4B2002CF0D1FFF76EFD0020C9E797
:102730002DE9F0410746884615461E460024FFF75E
:1027400009FF3846FFF7D4FEFFF75CFF4046FFF76E
:10275000CFFEFFF757FFFFF7FDFE791CC8B2FFF76A
:10276000C7FEFFF74FFF00BF0DE0681EA04204D078
:102770000120FFF753FE305503E00020FFF74EFE27
:102780003055601CC4B2AC42EFDBFFF717FF2046A8
:10279000BDE8F08137B504460D4602AB012229465B
:1027A000204600F001F83EBD2DE9F04180460D467F
:1027B00016461F460024FFF7CDFE4046FFF798FE61
:1027C000FFF720FF2846FFF793FEFFF71BFF00BF30
:1027D00006E0385DFFF78CFEFFF714FF601CC4B203
:1027E000B442F6DBFFF7EAFE0120BDE8F08100000D
:1027F0002DE9F0470BE0FFF7DDFA28480068401CA0
:102800002649086008460068642800DB00E0F2E71B
:1028100000BF38E02248006828B90120204908603C
:10282000002020490860FFF7C5FA04461D480168EA
:102830002046FDF79BFC1B49086019480068642886
:102840001CD117480068FDF7E1FE8146494615484E
:102850000068FDF715FD0446FDF7FFFE0746002260
:10286000114BFDF7ECFD0546FDF70AFF0F49086027
:1028700000200B4908600B4908600BE0084800681D
:10288000401C07490860FFF795FA04460021FDF750
:1028900013FFBFD100BFBDE8F08700006800002033
:1028A0006C00002070000020000004403C0000206C
:1028B00008B50121082000F083FC4FF44070ADF80A
:1028C000000010208DF8030003208DF802006946F7
:1028D0000648FEF717FE4FF480710448FEF79FFE8E
:1028E0004FF400710148FEF79AFE08BD000C01404C
:1028F00010B50A48007840B10020084908704FF42C
:1029000080710748FEF78BFE06E00120034908703E
:1029100001020348FEF781FE10BD000035020020D1
:10292000000C014070B50446FEF7ACFC054621469C
:10293000FDF7C2FE12D24FF480710948FEF76FFE18
:102940000848007828B100200649087000F08FFD83
:1029500004E001200349087000F07CFD70BD000018
:10296000000C01408802002000BFFEE72DE9F0477F
:102970009948007810B9FF20984908709748007866
:10298000012806D0022811D01F2819D0FF287DD198
:10299000BCE000209249C8808880488008808E482A
:1029A000007810B102208D49087000BF8D488088E2
:1029B00040F24C41884202DD1F2088490870B0E097
:1029C00088498988A1F57A70FDF720FE0646864879
:1029D000816A3046FDF7CAFB0546FDF725FE04B2C5
:1029E0008048808840F21541884206DA00207C4900
:1029F000C88088804880088093E0002C01DA00209D
:102A000006E0B4F5617F02DD4FF4617000E020461E
:102A10007349C880888048800880744A916A744AE3
:102A2000906AFDF7F5FB80467248816A4046FDF7E3
:102A3000EFFB06466A49B1F90000FDF7E7FD0746DE
:102A40003146FDF793FB0546FDF7EEFD00B2644904
:102A500008806748806A80F000486448816A404680
:102A6000FDF7D6FB07466348816A3846FDF77EFBD3
:102A700006465B49B1F90200FDF7C8FD81463146C3
:102A8000FDF774FB0546FDF7CFFD00E048E000B21E
:102A9000534948805648806A80F000485348816A0C
:102AA0004046FDF763FB07465248816A3846FDF70A
:102AB000AFFB06464A49B1F90400FDF7A7FD814680
:102AC0003146FDF753FB0546FDF7AEFD00B2444924
:102AD0008880464A916A464A906AFDF747FB8046DD
:102AE0004448816A4046FDF741FB06463C49B1F93E
:102AF0000600FDF78BFD07463146FDF737FB05461F
:102B0000FDF792FD00B23649C8800AE00020344942
:102B1000C88088804880088001203049087000E023
:102B200000BF00BF2E48B0F90000002801DA0020E5
:102B30000BE02B48B0F90000B0F57A7F02DD4FF4CE
:102B40007A7002E02648B0F900002B49088024483A
:102B5000B0F90200002801DA00200BE02048B0F9AB
:102B60000200B0F57A7F02DD4FF47A7002E01C4873
:102B7000B0F902002049091D08801948B0F9040085
:102B8000002801DA00200BE01548B0F90400B0F588
:102B90007A7F02DD4FF47A7002E01148B0F9040048
:102BA0001549083108800E48B0F90600002801DAFE
:102BB00000200BE00A48B0F90600B0F57A7F02DD8C
:102BC0004FF47A7002E00648B0F906000A490C3169
:102BD0000880BDE8F087000026000020CD0200201C
:102BE000C40200201C0300206804002064030020AD
:102BF0003003002098030020340400402DE9FE4FEC
:102C000006236A463B21D020FFF752FD06230DF133
:102C100006024321D020FFF74BFD002458E001209D
:102C200000EB44001DF800001DF8141040EA0120DC
:102C3000294931F81410401A00B22849096821F8CE
:102C40001400032C1BDA2549096831F91400FDF73B
:102C5000DDFC054604EB4401214A02EBC100294694
:102C600001F02DFF04EB44011D4A02EBC10188680D
:102C7000FDF7DAFC00B21949096821F81400022CAA
:102C800024DDE01EC5B2DFF85C801449096831F923
:102C90001400FDF7BBFC82464146FDF7BFFA07462C
:102CA000114951F825001149FDF7B8FA8146394616
:102CB000FDF75CFA0C4941F825000646FDF7B4FC27
:102CC00000B20649096821F8140000BF601CC4B2B4
:102CD000062CA4DBBDE8FE8FD00400203C020020BF
:102CE000400200209A99193EDC0400209A99593F2D
:102CF000F0B58BB0182105A8FDF72DFA1E25052685
:102D00007742002003900490404800210160416018
:102D100081604FF400503D49888000220121400429
:102D200000F08CFE3BE000BF0A2001F0A9FEFFF797
:102D300065FF002416E036480168E01C31F81000F9
:102D400003A931F81410401A00B201A921F81400A7
:102D50002F480168E01C31F8100003A921F8140085
:102D6000601C04B2032CE6DBBDF904000528DBDCA3
:102D7000BDF9040010F1050FD6DBBDF906000528EA
:102D8000D2DCBDF9060010F1050FCDDBBDF908005E
:102D90000528C9DCBDF9080010F1050FC4DB2800C7
:102DA000A5F10101CDB2BED1002417E0FFF726FF47
:102DB000642C11DB00200CE005A951F82010144A06
:102DC000126832F91020114405AA42F82010411C63
:102DD000C8B20628F0DB00BF601C04B2B4F5B27FB5
:102DE000E4DB002409E005A850F82400001200B23A
:102DF000064921F81400601C04B2062CF3DB012202
:102E00001146900700F01AFE0BB0F0BDD004002070
:102E10003C02002010B5002400BF80226B21D0208E
:102E2000FFF724FCC4B21E2001F02AFE0222192161
:102E3000D020FFF71BFC2044C4B203226B21D0201A
:102E4000FFF714FC2044C4B203221A21D020FFF75C
:102E50000DFC2044C4B218221B21D020FFF706FC31
:102E60002044C4B209221C21D020FFF7FFFB2044DC
:102E7000C4B2002CD1D17521D020FFF707FBC4B21A
:102E8000682C01D0012010BDFFF732FF0020FAE7C7
:102E9000704700001FB510A103C9CDE9020105224A
:102EA00002A9302000F0BEF805226946102000F08B
:102EB00067F8002406E01DF80400A52800D003E010
:102EC000601CC4B2052CF6DB00BF052C02D001202B
:102ED00004B010BD0020FBE7A5A5A5A5A500000036
:102EE00008B50121042000F06BF94FF48070ADF8B3
:102EF000000010208DF8030003208DF802006946C1
:102F00001D48FEF7FFFA0121082000F059F94FF49F
:102F10008050ADF8000010208DF8030003208DF8DC
:102F2000020069461548FEF7EDFA4FF48070124929
:102F30001031086000011149103108600420ADF81B
:102F4000000048208DF8030003208DF80200694638
:102F50000A48FEF7D7FA04210848FEF760FB00F0A4
:102F6000DFFA4FF48070044914310860000103490E
:102F70001031086008BD000000080140000C01404D
:102F80002DE9F04107460D4616464FF480500C4996
:102F90000860384600F03AFB8046002405E0FF2038
:102FA00000F034FB2855601CC4B2B442F7DB4FF488
:102FB00080500349091F08604046BDE8F0810000C9
:102FC000140C014070B504464FF480500749086066
:102FD000204600F01BFBFF2000F018FB05464FF4D5
:102FE00080500249091F0860284670BD140C01403A
:102FF00070B504460720FFF7E5FF05462946272060
:1030000000F032F805F0400050B120222146612046
:10301000FFF7B6FFFF21E22000F026F8002070BD88
:103020000120FCE72DE9F04107460C4615464FF418
:1030300080500C490860384600F0E8FA80460026C7
:1030400005E014F8010B00F0E1FA701CC6B2AE42C4
:10305000F7DB4FF480500349091F08604046BDE884
:10306000F0810000140C014070B505460C464FF489
:10307000805008490860284600F0C8FA06462046F5
:1030800000F0C4FA4FF480500249091F086030462E
:1030900070BD0000140C014010B5FFF721FF00BF08
:1030A00000F006FAFFF7F6FE0128F9D010BD000087
:1030B00070B5002100230F22C47804B3154C246896
:1030C00004F4E064C4F5E064210AC1F10403CA40D9
:1030D000447804FA03F184781440214309010E4C2A
:1030E0000678A155047804F01F050124AC4005784A
:1030F0006D11AD0005F1E025C5F8004109E0047847
:1031000004F01F050124AC40044D0678761145F803
:10311000264070BD0CED00E000E400E080E100E03E
:1031200002490143024A1160704700000000FA059D
:103130000CED00E0704700002DE9F05F04464FF011
:103140007F594FF07C512046FDF768F882462546AE
:103150002E460C48A0EB6606354629465046FDF73C
:103160005DF883462946FDF759F880464946FDF744
:1031700052F807462946FDF751F805462846BDE8AE
:10318000F09F0000DF59375F01460020034A506876
:1031900020F4404008435060704700000010024097
:1031A00029B1064AD2690243044BDA6104E0034ABA
:1031B000D2698243014BDA6170470000001002407F
:1031C00029B1064A92690243044B9A6104E0034A1A
:1031D00092698243014B9A617047000000100240DF
:1031E00030B500210022002400232D4D6D6805F02C
:1031F0000C0121B1042905D0082923D105E0294D6E
:10320000056022E0274D05601FE0254D6D6805F43F
:103210007012234D6D6805F48034022505EB92424F
:103220001CB9214D554305600BE01D4D6D6805F43B
:1032300000351DB11C4D5543056002E0194D554345
:10324000056002E0174D056000BF00BF144D6D68BA
:1032500005F0F0010909154D6B5C0568DD4045601E
:103260000F4D6D6805F4E061090A104D6B5C45680F
:10327000DD4085600A4D6D6805F46051C90A0B4D4B
:103280006B5C4568DD40C560054D6D6805F44041E7
:10329000890B074D6B5CC568B5FBF3F5056130BD67
:1032A0000010024000127A0000093D0028000020B2
:1032B000380000202DE9F0415E48FFF799FE002814
:1032C0007ED100255C490880002405E05948005D56
:1032D0002844C5B2601CC4B21F2CF7DB5548C07F20
:1032E000A8426ED153480078AA28FAD151484078B4
:1032F000AF28F6D14F4840794E49097940EA01207C
:103300004E4908804B48C0794A49897940EA0120F2
:103310004A4948804748407A4649097A40EA0120AC
:10332000464988804348C07A4249897A40EA012068
:103330004249C8803F48407B3E49097B40EA012022
:103340003E4908813B48C07B3A49897B40EA0120DD
:103350003A4948813748407C3649097C40EA012097
:10336000364988813348C07C3249897C40EA012053
:103370003249C8812F48407D2E49097D40EA01200D
:103380002E4908822B48C07D2A49897D40EA0120C8
:103390002A4948822A4E498840F2DC52501AFDF7E9
:1033A00035F907463146FCF739FF264908602349BD
:1033B000098840F2DC52501AFDF728F9074601E06F
:1033C00025E023E03146FCF729FF1F4908601B4830
:1033D000C08840F21C71884208DD1C4908684FF023
:1033E0007D51FCF7C3FE194908600DE01348C08801
:1033F00040F29C41884207DA144908684FF07D5139
:10340000FCF706FF1149086002F020F90FE00A48B6
:103410000088401C0849088008460088B0F5487FAD
:1034200005DD002008800A490870FFF735FEBDE879
:10343000F0810000500500209C0200201C030020A9
:103440000AD7233DCC0300200004002034040020D0
:103450002600002010B5002406E000221146104688
:1034600000F044FF601CC4B2042CF6DB10BD10B5A4
:10347000002406E00022FF21104600F037FF601C08
:10348000C4B2042CF6DB10BD00B50346002200BF19
:103490000BE003FA02F000F0010010B100F0EAFEC8
:1034A00001E000F0AFFE501CC2B2082AF1DB00BD03
:1034B00010B54FF4807012490860052211492A2086
:1034C000FFF7B0FD01212120FFF7CEFD01212220D1
:1034D000FFF7CAFD2D212520FFF7C6FD2021312051
:1034E000FFF7C2FD0F212620FFF7BEFD0F21202090
:1034F000FFF7BAFD4FF480700149091F086010BD45
:1035000014080140615D000821B1028842F04002C8
:10351000028004E002884FF6BF731A4002807047B1
:1035200000B587B001218803FFF73AFE0121092089
:10353000FFF746FE4FF480511C48FEF770F84FF439
:103540006040ADF8040003208DF8060018208DF8C7
:10355000070001A91548FDF7D5FF00211448FFF722
:10356000D3FF0020ADF808004FF48270ADF80A00D8
:103570000020ADF80C00ADF80E00ADF810004FF4CF
:103580000070ADF812001020ADF814000020ADF866
:1035900016000720ADF8180002A9054800F018F839
:1035A00001210348FFF7B0FF07B000BD000C014048
:1035B000003800400246002013890B400BB1012067
:1035C00000E000207047014688897047818170477C
:1035D00010B50022028802F441520B884C88234324
:1035E0008C882343CC8823430C8923434C89234371
:1035F0008C892343CC8923431A430280838B4FF267
:10360000FF74234083830B8A038210BD10B50446E8
:1036100000BF02210A48FFF7CDFF0028F9D021465C
:103620000748FFF7D3FF00BF01210548FFF7C2FF9E
:103630000028F9D00248FFF7C6FFC0B210BD000055
:1036400000380040704710B500F002F810BD0000CF
:103650000CB50020019000903348006840F48030A1
:103660003149086000BF3048006800F40030009025
:103670000198401C0190009818B90198B0F5A06F0E
:10368000F1D12948006800F4003010B10120009009
:1036900001E0002000900098012843D123480068F1
:1036A00040F01000214908600846006820F003003F
:1036B00008600846006840F0020008601A48406848
:1036C000194948600846406848600846406840F428
:1036D000806048600846406820F47C1048600846D6
:1036E000406840F4E81048600846006840F0807088
:1036F000086000BF0C48006800F000700028F9D096
:103700000948406820F003000749486008464068BF
:1037100040F00200486000BF0348406800F00C0021
:103720000828F9D10CBD0000001002400020024022
:10373000042808D14FF0E021096941F004014FF05D
:10374000E022116107E04FF0E021096921F0040156
:103750004FF0E0221161704702480068401C0149A7
:10376000086070471C00002010B51348006840F046
:1037700001001149086008464068104908400E4998
:103780004860084600680E4908400B490860084632
:10379000006820F4802008600846406820F4FE009D
:1037A00048604FF41F008860FFF74DFF4FF0006046
:1037B0000449086010BD0000001002400000FFF83E
:1037C000FFFFF6FE08ED00E01FB501210846FFF7F8
:1037D000E7FC1C208DF8000001208DF8010003207B
:1037E0008DF8020001208DF803006846FFF760FCA9
:1037F00040F22B10ADF8080040F2CF20ADF80400E5
:103800000020ADF80A00ADF8060001A94FF0804095
:1038100000F07AFA01221146900700F00FF9012119
:10382000880700F0EEF81FBD10B50121880700F0F1
:10383000F4F8002843D022480068401C2049086062
:1038400020480078401C1F4908701F480078401C21
:103850001D4908701D480078401C1C490870194813
:103860000078012812D1002016490870FEF79AFD51
:10387000FFF720FDFFF7C2F91548FDF7A3FDFFF79D
:1038800075F8144A14491548FDF7CCFE0E48007827
:10389000022804D100200C490870FDF7F3FC0B4806
:1038A0000078142807D100200849087000F098FC1F
:1038B0000B48FFF737F80121880700F09FF810BD8B
:1038C0001C00002018000020190000201A00002011
:1038D000A69B443BB0204D3B100300200403002076
:1038E0003333334000B589B001210D20FFF768FC68
:1038F00001210220FFF754FCC020ADF82000182061
:103900008DF8230003208DF8220008A93848FDF720
:10391000F9FD0320ADF8200018208DF823000320C6
:103920008DF8220008A93348FDF7ECFD40F2E7309E
:10393000ADF818000820ADF814000020ADF816000E
:10394000ADF81A0005A92C4800F0DEF96020ADF8AA
:1039500004000020ADF80A00ADF80C000120ADF81D
:10396000060001A9244800F073F80821224800F05D
:10397000BBF86020ADF804000020ADF80A00ADF8F7
:103980000C000120ADF8060001A91B4800F0B6F8B4
:103990000821194800F004F96020ADF80400002067
:1039A000ADF80A00ADF80C000120ADF8060001A941
:1039B000114800F003F908210F4800F04FF960208A
:1039C000ADF804000020ADF80A00ADF80C000120AD
:1039D000ADF8060001A9084800F04AF90821064898
:1039E00000F084F90121044800F00BF809B000BD93
:1039F00000080140000C014000040040CA4302825C
:103A0000704721B1028842F00102028004E002887E
:103A10004FF6FE731A400280704730B50246002010
:103A200000230024158A05EA0103958905EA0104AB
:103A300013B10CB1012000E0002030BD1AB1838920
:103A40000B43838102E083898B43838170470000AD
:103A500070B5002400220023058C4FF6FE76354019
:103A60000584028C8388048B4FF68F752C40B51E1D
:103A70002C400D882C43751E2A400D892A434D8801
:103A80002A43144DA8420BD0134DA84208D0134D21
:103A9000A84205D0124DA84202D0124DA84213D11F
:103AA0004FF6F7752A404D892A434FF6FB752A4099
:103AB0008D882A434FF6FF652B404FF6FF552B406C
:103AC0008D892B43CD892B4383800483CD888586C4
:103AD000028470BD002C01400034014000400140D0
:103AE00000440140004801400A460021018B4FF686
:103AF000F7731940114301837047000070B500242B
:103B000000220023058C4FF6EF7635400584028CA9
:103B10008388048B48F6FF752C404FF6FF452C40F8
:103B20000D884FF6FF7606EA05252C434FF6DF7524
:103B30002A400D8906EA05152A434D8806EA05152F
:103B40002A43154DA84202D0144DA8421DD14FF66C
:103B50007F752A404D894FF6FF7606EA05152A4300
:103B60004FF6BF752A408D8806EA05152A434FF6A1
:103B7000FF352B404FF2FF752B408D8906EA8505F6
:103B80002B43CD8906EA85052B4383800483CD88AA
:103B90000587028470BD0000002C01400034014004
:103BA0000A460021018B4FF2FF7319404FF6FF7355
:103BB00003EA0223194301837047000070B5002413
:103BC00000220023058C4FF6FF6635400584028CE9
:103BD0008388848B4FF68F752C404FF6FC752C40F4
:103BE0000D882C434FF6FF552A400D894FF6FF767E
:103BF00006EA05252A434D8806EA05252A43154D80
:103C0000A84202D0144DA8421DD14FF2FF752A40A0
:103C10004D894FF6FF7606EA05252A434FF6FF3514
:103C20002A408D8806EA05252A434EF6FF752B406B
:103C30004DF6FF752B408D8906EA05152B43CD897E
:103C400006EA05152B4383808483CD88858702840B
:103C500070BD0000002C0140003401400A460021E4
:103C6000818B4FF6F7731940114381837047000031
:103C700070B5002200230024058C4EF6FF763540F7
:103C80000584038C8488828B48F6FF752A404FF6A2
:103C9000FF452A400D884FF6FF7606EA05252A43A0
:103CA0004DF6FF752B400D8906EA05352B434D88EF
:103CB00006EA05352B430B4DA84202D00A4DA84217
:103CC00008D14BF6FF752C408D894FF6FF7606EA3A
:103CD00085152C4384808283CD88A0F840500384CE
:103CE00070BD0000002C0140003401400A46002154
:103CF000818B4FF2FF7319404FF6FF7303EA0223E3
:103D00001943818370470000002202881D4B9842AE
:103D10000ED01D4B98420BD0B0F1804F08D01B4BFA
:103D2000984205D01A4B984202D01A4B984204D1BF
:103D30004FF68F731A404B881A43174B984207D09F
:103D4000164B984204D04FF6FF431A40CB881A43D3
:103D500002808B8883850B8803850A4B98420BD0A1
:103D6000094B984208D00E4B984205D00D4B984213
:103D700002D00D4B984201D10B7A03860123838236
:103D800070470000002C0140003401400004004056
:103D900000080040000C00400010004000140040EB
:103DA00000400140004401400048014070B53C48DB
:103DB00000883B48008840F22551084000286ED01A
:103DC0003748001D008840B23649374A1278885477
:103DD0003548007810B101281AD10AE0314890F92D
:103DE0000000563020B930480078401C2E49087039
:103DF00054E02C4890F90100513028B92A48007845
:103E0000401C2949087002E000202749087045E05D
:103E1000244890F90300001D23490978884205DDF4
:103E200021480078401C2049087037E00025002414
:103E300005E01C48005D284445B2601CC4B21A4825
:103E400000788442F5DB1748174909784056A842A4
:103E50001CD1144880781549087108464571002026
:103E60008871002409E0114880791049095D0844EF
:103E700040B20E498871601CC4B2062CF3DB0721E6
:103E80000A4800F08FF90748FCF784FE0020064935
:103E9000087004490870487000BF00BF00BF70BDC3
:103EA00000380140370500209302002094020020D2
:103EB00010B586B0044601218804FFF771F901218D
:103EC0000920FFF77DF927208DF8000000208DF8EC
:103ED00001008DF8020001208DF803006846FFF70D
:103EE000E7F84FF48060ADF8040018208DF8070063
:103EF00003208DF8060001A91548FDF703FB4FF4D8
:103F00000060ADF8040004208DF8070001A91048F6
:103F1000FDF7F8FA02940020ADF80C00ADF80E00A1
:103F2000ADF81000ADF814000C20ADF8120002A995
:103F3000084800F0CBF8012240F22551054800F076
:103F40009FF80121034800F08FF806B010BD000073
:103F5000000C01400048004070B53C4800883B48D8
:103F6000008840F22551084000286ED03748001DD7
:103F7000008840B23649374A12788854354800786C
:103F800010B101281AD10AE0314890F900005630EA
:103F900020B930480078401C2E49087054E02C4865
:103FA00090F90100513028B92A480078401C29496D
:103FB000087002E000202749087045E0244890F985
:103FC0000300001D23490978884205DD2148007857
:103FD000401C2049087037E00025002405E01C48FB
:103FE000005D284445B2601CC4B21A48007884427F
:103FF000F5DB1748174909784056A8421CD11448E8
:1040000080781549087108464571002088710024A0
:1040100009E0114880791049095D084440B20E4911
:104020008871601CC4B2062CF3DB07210A4800F03B
:10403000B9F80748FCF7AEFD0020064908700449AE
:104040000870487000BF00BF00BF70BD004800404E
:104050001E0500208B0200208C02002010B50446B3
:104060002046FFF725FF10BD21B1828942F400529E
:10407000828104E082894DF6FF731A408281704785
:10408000F0B50346002400260025002040F66A17FC
:10409000B94200D100BF1846C1F3421401F01F0617
:1040A000012707FA06F5012C01D10C3004E0022C9F
:1040B00001D1103000E014301AB107682F430760B7
:1040C00002E00768AF430760F0BD00002DE9F0474C
:1040D00086B005460E460024A24600BFA146002732
:1040E000B08900B100BF2F462C8A4CF6FF70044007
:1040F000F08804432C82AC894EF6F3100440B0885B
:1041000031890843718908430443AC81AC8A4FF676
:10411000FF400440B0890443AC8201A8FFF760F877
:104120001F48874202D1DDF810A001E0DDF80CA0A5
:10413000A88900F4004040B10AEBCA0000EB0A1065
:1041400031684900B0FBF1F807E00AEBCA0000EB68
:104150000A1031688900B0FBF1F86420B8FBF0F078
:1041600004012009642101FB1089A88900F40040A2
:1041700040B1322000EBC900B0FBF1F000F00700C5
:10418000044308E0322000EB09106421B0FBF1F099
:1041900000F00F0004432C8106B0BDE8F08700005A
:1041A0000038014070B505460E4600240DE000BF02
:1041B0000748008800F080000028F9D0285781B215
:1041C000034800F007F8601CC4B2B442EFDB70BDD6
:1041D00000480040C1F308028280704700BFFEE73C
:1041E00010B50648007810B1FEF782FB04E04FF4EA
:1041F00080710348FDF711FA10BD00002600002071
:10420000000C01401A48006840F40070184908602A
:1042100000BF00BF00BF00BF00BF00BF1448001DAB
:10422000006840F400701249091D086000BF00BF1B
:1042300000BF00BF00BF00BF00BF00BF00BF00BF86
:1042400000BF00BF00BF00BF00BF00BF00BF00BF76
:1042500000BF00BF00BF00BF00BF00BF00BF00BF66
:1042600000BF00BF00BF00BF00BF00BF704700001D
:10427000100C01401C48006840F400701A490860A6
:1042800000BF00BF00BF00BF00BF00BF00BF00BF36
:1042900000BF00BF00BF00BF00BF00BF00BF00BF26
:1042A00000BF00BF00BF00BF00BF00BF00BF00BF16
:1042B00000BF00BF00BF00BF00BF00BF00BF00BF06
:1042C0000948001D006840F400700749091D086096
:1042D00000BF00BF00BF00BF00BF00BF00BF00BFE6
:1042E00000BF00BF70470000100C014070B50646CB
:1042F0000C4615463046FFF7C7F82046FFF7C4F8CE
:104300002846FFF7C1F870BD490050EAC12018BF28
:1043100004204A0D18BF40F0010040F2FF72B2EBDA
:10432000515F08BF40F00200012808BF0520704718
:104330002DE9F0414F1E00EBC7010446D1E9000111
:1043400015461E4637F006020DD02A463346FCF7C6
:104350007CF87F1E04EBC703D3E90023FBF7CEFFF5
:1043600037F00602F1D1022F25D0042F13D0062FEB
:1043700018BFBDE8F0812A463346FCF766F8D4E959
:104380000A23FBF7BBFF2A463346FCF75EF8D4E965
:104390000823FBF7B3FF2A463346FCF756F8D4E967
:1043A0000623FBF7ABFF2A463346FCF74EF8D4E969
:1043B0000423FBF7A3FF2A463346FCF746F8D4E96B
:1043C0000223FBF79BFF2A463346FCF73EF8D4E96D
:1043D0000023BDE8F041FBF791BF00000022134627
:1043E00010460149FCF7A3B80000F03F0122FCF79A
:1043F0002CBAFBF783BF0022134610461146FCF788
:1044000096B840F2013200204FF0E041FCF71DBAAF
:10441000024A00201107FCF718BA000001FDFFFF57
:1044200002E008C8121F08C1002AFAD1704770477D
:10443000002001E001C1121F002AFBD170470000DB
:104440000149086070470000000300202DE9F04D8D
:104450008D4F21F0004A86B005460C46BA452ADB4E
:10446000AAEB070028430AD08848824501DC1AD10C
:10447000CDB106B02846BDE8F04DFFF7B7BF844A7E
:10448000844B2846FBF7E1FF07460E46824A834BE2
:1044900028462146FBF7D9FF06B03A463346BDE829
:1044A000F04DFBF72BBF0120FFF7CAFF06B0BDE8B8
:1044B000F04DFFF7A0BF7A48824542DABAF1795F42
:1044C0000BDA2846FFF720FF042808BFFFF7A0FFFC
:1044D000284606B02146BDE8F08D2A460B46104618
:1044E000FBF7B3FF834602466E480E460B46062195
:1044F0007844FFF71DFF5A463346FBF7A6FF804678
:1045000069488A465A46334604217844FFF710FF2B
:104510005A463346FBF799FF00223B46FBF7EEFE77
:1045200002460B4640465146FCF701F82A46234610
:10453000FBF78BFF06B02A462346BDE8F04DFBF79C
:10454000DDBE284624F0004100223D463B46FBF7F5
:1045500079FF4FF0FF32FCF778F9064602465348E0
:104560000F460B4606217844FFF7E2FE32463B46F3
:10457000FBF76BFFCDE900014D4832463B46042175
:104580007844FFF7D5FE32463B46FBF75EFF00223C
:104590002B46FBF7B3FE834602913046394601F0C5
:1045A000B7FB804643480D46504517DCDDE9000166
:1045B0005A46029BFBF7BBFF42462B46FBF745FFE3
:1045C00042462B46FBF79AFE0122FCF73EF9304AA1
:1045D000304BFBF734FF304A304B4CE04FF0000AD1
:1045E00052460B464046FBF789FECDE90310524682
:1045F0002B4610461946FBF728FF32463B46FBF791
:1046000021FFDDE90332FBF792FF06460F46DDE9A5
:1046100000015A46029BFBF78AFF83460091012264
:1046200030463946FCF711F9194A1A4BFBF70AFFD5
:1046300006460F46012240462946FCF706F95A462F
:10464000009BFBF702FF32463B46FBF7F8FE0646AF
:104650000F46012250462946FCF7F7F80E4DDFF8C9
:1046600058802A464346FBF7EDFE32463B46FBF7B1
:10467000E9FE2A464346FBF7E5FE002CD8BF81F051
:10468000004106B0BDE8F08D0000F03F0000F07F73
:10469000075C143326A6913C182D4454FB21F93FA6
:1046A0000000E03F8C180000A2180000161800005F
:1046B0002C1800003333EF3FFB21E93F2DE9F84F81
:1046C00004460D4621F0004000917349814211DCFF
:1046D0007249884201DC06D12CB120462946BDE84A
:1046E000F84FFFF783BE6E48002DCCBF6D496E4971
:1046F000BDE8F88F6D49814211DD6D498142D8BF17
:104700004FF0FF366DDD20462946FFF7FDFD0428FA
:1047100008BFFFF77DFE20462946BDE8F88F6549B2
:10472000654F25F00045814233DD6449814219DD42
:10473000002632464FF0804320462946FBF7DEFD37
:1047400080468A46012220462946FCF77EF8002250
:104750003B46FBF774FE42465346FBF7E8FE044631
:104760000D463EE001260022BA463B462046294639
:10477000FBF7C4FD80460F460022534620462946DB
:10478000FBF75DFE42463B46FBF7D1FE04460D4675
:1047900027E04B4981421BDDDFF828A102260022D9
:1047A000534620462946FBF750FE00223B46FBF7C6
:1047B000A5FD80460F460022534620462946FBF7BA
:1047C0003EFE42463B46FBF7B2FE04460D4608E07D
:1047D000032622462B4600203B49FBF7A8FE044651
:1047E0000D4622462B4610461946FBF72EFE8B46F9
:1047F000824602460B46FBF728FE07460246334830
:1048000088460B4606217844FFF792FD52465B46E8
:10481000FBF71BFE82462E488B463A46434605214F
:104820007844FFF785FD3A464346FBF70EFE024605
:104830000B46002E504659460CDAFBF75FFD224628
:104840002B46FBF702FE01B022462B46BDE8F04F97
:10485000FBF7F8BDFBF752FD22462B46FBF7F5FDB3
:104860001C4A7A4402EBC603D3E90023FBF7E7FDB9
:1048700022462B46FBF7E3FD174A7A4402EBC603B8
:10488000D3E90023FBF7DEFD009A002AB8BF81F0D0
:104890000041BDE8F88F0000000010440000F07FE8
:1048A000182D4454FB21F93FFB21F9BF0000DC3FE8
:1048B0000000203E0000F33F0000F03F0000E63F14
:1048C000008003400000F83F0000F0BFB616000073
:1048D0007416000012160000DA1500002DE9F04DE4
:1048E0009446CCF1000423F000464CEA0404524FF5
:1048F00046EAD4749A46884621F00042BC4206D863
:10490000454240EA050442EAD474BC4204D9BDE8F9
:10491000F04D6246FFF76DBDAAF14055A5F17F65E8
:1049200055EA0C040BD0022404EAAA74434DDFF8C4
:1049300010E144EAD87452EA000B04D00CE0BDE860
:10494000F04DFFF7BBBE002C14BF012CBDE8F08D6D
:10495000022C30D0032C32D056EA0C0B0AD0BE42C7
:1049600020D1BA4209D126F0804622F08042334657
:10497000114617E000291ADB25E0DFF8C8B0FB4438
:10498000002C04BFDBE90001BDE8F08D012C02BF63
:10499000DBE9000181F00041BDE8F08D022C0AD076
:1049A000032C0CD0BA4212D1B8F1000F0BDA234815
:1049B0002549BDE8F08D28462449BDE8F08D2846FC
:1049C0007146BDE8F08D1D482149BDE8F08D921B70
:1049D00012153C2AC4BF19481D490EDCBAF1000F5C
:1049E000BEBF12F13C0F0020014606DB6246FBF71A
:1049F0009EFD21F00041FFF761FE002C08BFBDE8DD
:104A0000F08D012C04BF81F00041BDE8F08D114A0A
:104A1000114B022C07D0FBF712FD2A46BDE8F04DE2
:104A20000A4BFBF70CBDFBF70AFD2A46BDE8F04D2B
:104A3000064BFBF707BD00000000F07F182D445423
:104A4000FB2109C06E150000FB21F9BFFB210940C5
:104A5000FB21F93F075C143326A6A13C00B585B0C5
:104A60006846FEF7BDFB04490098B0FBF1F003492E
:104A7000086005B000BD000040420F001400002097
:104A800030B50446FDF774F9054600BFFDF770F92F
:104A9000401B04EB4401C1EBC411B0EBC10FF5D3D3
:104AA00030BD0146002005E0012001E0421ED0B2E9
:104AB0000028FBDC0A00A1F10101F5D170472DE9C6
:104AC000F04104460D4621692068FBF74FFB60600A
:104AD00061696068FBF74AFB064631466068FBF790
:104AE000CFFBE0602846A168FBF792FB0746E16830
:104AF000FBF794FB0646A168FBF738FBA0604FF07C
:104B00007E50E168FBF784FB06466168FBF786FB95
:104B10002060BDE8F0810000FFF7A0FF4FF4A06027
:104B2000FEF7FEFA184800684FF47A72B0FBF2F113
:104B3000B1F1807F00D31DE021F07F40401E4FF097
:104B4000E022506150170F22002807DA13071D0ECC
:104B50000E4B00F00F04241F1D5503E013071C0E1D
:104B60000B4B1C5400BF00204FF0E0229061072047
:104B7000106100BF6FF00400FEF7DAFDFBF7ECFFF9
:104B800001E0FCF705FAFCE70000002018ED00E06A
:104B900000E400E010B5024600200EE0002352F8C9
:104BA0002040E36052F82040A36052F82040A36206
:104BB00052F820406360431CD8B28842EEDB10BD3F
:104BC0002DE9F05F04460E46616A2068FBF720FB82
:104BD000054631462846FBF721FB8046E168FBF796
:104BE000C5FAE060A1682846FBF712FB8046314613
:104BF000FBF746FB0746A0693946FBF70FFB8146EA
:104C0000E1686069FBF70AFB824620692946FBF7E9
:104C100005FB83465146FBF7A9FA80464946FBF758
:104C2000A5FAA062A560BDE8F09F00000F481049FA
:104C300008611049086110481049086100200C49BA
:104C400048610C4948610D4948610D48084988612F
:104C5000084988614FF07C500849886109480A4931
:104C600008610A4908610A49086170479A99D93F61
:104C7000300300206403002000004040980300201F
:104C80000AD7A33D0000E040CC0300200004002030
:104C9000340400202DE9F04D16460F4694B01C4612
:104CA00021F0004123F00042002814BF4FF0010C16
:104CB0004FF0000C0CEB470CFE4B0CEB03054FEADE
:104CC000630C65452BD3350018BF012505EB440562
:104CD0001D44F94B9D4222D3F84B52EA060C02D0F8
:104CE0009F4205D148B914B000201946BDE8F08DA7
:104CF000002808BF4FF0000C01D04FF0010C0CEB66
:104D0000470313F5001F0AD8002E14BF4FF0010C03
:104D10004FF0000C0CEB440313F5001F07D914B03F
:104D2000324623463946BDE8F04DFFF762BBDFF857
:104D300090834FF0000A002FB8BF424523DAE14BC1
:104D40009A42A8BF4FF0020A1DDADC4B93421ADCEC
:104D5000DD4B03EB2253142B08DDC3F1340C26FA90
:104D60000CF303FA0CFCB4450DD108E05EB9C3F1B5
:104D7000140C22FA0CF303FA0CFC944503D103F053
:104D80000103C3F1020A51EA00031BD1002C19DA16
:104D9000002F18BFBAF1020F02D0BAF1010F07D0ED
:104DA0000220FFF74DFB14B0BDE8F04DFFF716BB36
:104DB0000220FFF745FBFFF711FB14B081F0004123
:104DC000BDE8F08D330070D1424525D107F1804216
:104DD00012F5801201BF00280020B84914B008BFA6
:104DE000BDE8F08DB548884207DC002CA1BF18460D
:104DF000214614B0BDE8F08D07E0002CBFBF184677
:104E000084F0004114B0BDE8F08DB0497944D1E997
:104E1000000114B0BDE8F08DDFF8A0C262452AD1D0
:104E2000002C24DA39B1414517D1002804BF0020F5
:104E300002461CD106E040B10220FFF701FBFFF75C
:104E4000E0FA0A46394600F0D7BA9D4A394614B00E
:104E5000002062F31E01BDE8F08D08DA14B03B4675
:104E6000BDE8F04D024600206146FBF760BB14B080
:104E70003946BDE8F08D414517DAB4F1804F0CD0CA
:104E8000A4F10053B3F1FF530FD13B1E0DDB14B05F
:104E90001946BDE8F04D00F03BBF3B4614B002465A
:104EA000BDE8F04D1946FBF7D0BA050027F00043E6
:104EB0003AD1E1B1414537D1002F06DD002CA1BF29
:104EC0000020414614B0BDE8F08D002F01DD002C1C
:104ED0001FDB002F16DA002C14DBBAF1010F4FF0A4
:104EE000000014BF76497A4914B0BDE8F08DBAF1DC
:104EF000020F18BF002F0CD0BAF1010F09D1002FFB
:104F000007DA0BE0002FB8BF002C0DDABAF1010F61
:104F100004D0002014B00146BDE8F08D14B000208C
:104F20004FF00041BDE8F08D4FF0010808EBE77C41
:104F3000CDF814C05CEA0A0C0DD0DFF898C16245C8
:104F40007EDDDFF894C1654B624512DD8B420ADBE2
:104F5000002C18DB23E00120FFF772FA14B0BDE843
:104F6000F04DFFF748BA554A8A4202DC002C0ADCB1
:104F700015E0994202DA002C11DA04E04F4B994215
:104F800019DD002C0BDD0220FFF75AFAFFF739FA82
:104F90004B4A14B061F31E021146BDE8F08D0220A9
:104FA000FFF74EFAFFF734FA444A14B061F31E02D9
:104FB0001146BDE8F08D00223946FBF740FA07465E
:104FC0000D466FF00102FBF740FC4FF05532444BA9
:104FD000FBF738FA3A462B46FBF737FA0022414BEB
:104FE000FBF730FA80468B463A462B461046194668
:104FF000FBF72BFA42465B46FBF727FA88460E90F2
:105000004FF0C042384B38462946FBF71EFA83461C
:105010000091364A344B41460E98FBF716FA80460B
:105020000191334A334B38462946FBF70EFA424684
:10503000019BFBF704FA0D4602460B460C9000E07C
:1050400011E058460099FBF759F9002788465A465F
:105050003846009BFBF7F3F92B460C9AFBF7F2F965
:10506000024600F079B90020B1F5801F07DA352239
:1050700028461946FBF7E9FB05466FF0340000EBC4
:105080002150A0F2FF300190C1F3130040F07F6186
:1050900041F04051029118498842D8BF4FF0000BAF
:1050A00035DD16498142C8BF4FF0010B2FDC4FF0B0
:1050B000000B25E0FFFF1F00FFFF0F000000F03F87
:1050C0000000F07F0000404301FCFFFFE010000003
:1050D0000000F0FF0000E0410000F043FFFFEF3F61
:1050E0005555D53F0000E03F4715F73FFE822B6541
:1050F00044DF5DF80BAE543E8E9803007AB60B0089
:105100000198401C01900298A0F580100290FF4881
:105110000299784400EBCB000991D0E9002328469E
:105120000B931292FBF78BF900910A9028460B9B88
:10513000129A0999FBF7E2F802460B460020F4495F
:10514000FBF7F5F9CDE90C010B46024600990A98E8
:10515000FBF77BF90690EF488846002778440299D0
:10516000006810904FF0005040EA610000EB8B4067
:1051700000F5002102910B9B129A1098FBF75FF942
:105180002A46099BFBF75EF93A464346FBF75DF971
:105190000891129038464146029B109AFBF755F948
:1051A000009B0A9AFBF74EF9089B129AFBF747F906
:1051B000DDE90C23FBF749F90B91069A129043465F
:1051C00010461946FBF741F905460246D2480B4600
:1051D0000A9106217844FFF7ABF80A9B2A4608910A
:1051E000029010461946FBF730F9089B029AFBF72C
:1051F0002CF905460991434638461946069AFBF7AD
:105200007DF80B9B129AFBF720F92A46099BFBF7C6
:1052100075F8CDE908013A46434610461946FBF7B2
:1052200014F90A910022BD4B0090FBF767F8DDE905
:105230000823FBF763F80D463A46B84B3846FBF7B0
:10524000FEF80A9B009AFBF7FAF8DDE90823FBF762
:10525000F9F8CDE908013A462B4610464146FBF7DE
:10526000F4F800910A90DDE908014346069AFBF73D
:10527000ECF8069088462B463A460B991298FBF7B5
:10528000E4F84346069AFBF739F880460B46024697
:105290000D9100990A98FBF731F800200F4605465A
:1052A000009B0A9AFBF7CBF842460D9BFBF7CAF826
:1052B00088460E904FF06042994B28463946FBF7DE
:1052C000C4F802910090974A954B41460E98FBF71F
:1052D000BCF880460391944A944B28463946FBF724
:1052E000B4F84246039BFBF709F8914A7A4402EB73
:1052F000CB03D3E90023FBF701F80546079101989A
:10530000FBF7BAFA0C9003912A46079B0299009882
:10531000FAF7F4FF874A7A4402EBCB03D3E9002380
:1053200093460193FAF7EAFF039B0C9AFAF7E6FF1C
:10533000002788463846039B0C9AFBF780F85A46AC
:10534000019BFBF77CF8029B009AFBF778F82A4652
:10535000079BFBF777F802460020069005986C4DF6
:10536000AAF10103184301D1734D069000200B46AA
:10537000049030462146FBF768F882468B46234668
:1053800030461946049AFBF75AF83A464346FBF76B
:105390005CF852465B46FAF7B1FF06468A463A4643
:1053A000434621460498FBF750F804460F46324620
:1053B0005346FAF7A3FF614A8B46914221DBABEBE0
:1053C000020353EA000210D122463B46FBF737F8AE
:1053D000804603915A4A5B4B30465146FAF78EFF9E
:1053E0004246039BFBF75AFA27D20220FFF728F820
:1053F000FFF707F80A46294614B062F31E01BDE81C
:10540000F08D514B2BF000429A4216D34F4A0BEBD2
:10541000020353EA000208D122463B46FBF70FF88D
:1054200032465346FBF73AFA07D80220FFF708F84E
:10543000FEF7EEFF0A462946DEE72BF0004044491E
:10544000444A01EB20514FF00008824223DA481C05
:105450004FF4801121FA00F058443F4AC0F30A513A
:105460007A443E4BA1F2FF31CB4020EA0303C0F364
:10547000130040F4801CC1F1140012682CFA00F8EB
:10548000BBF1000FB8BFC8F1000820463946FAF753
:10549000D6FF04460F4622463B4630465146FAF7B1
:1054A0002DFF4FF0000B5A462D4B58460391FAF74B
:1054B000CCFF00910A902B4A2B4B58460399FAF7E0
:1054C000C4FF0491029022463B4658460399FAF7DE
:1054D000B6FF32465346FAF7B5FF244A244BFAF793
:1054E000B4FF049B029AFAF709FF07468A46009B1D
:1054F0000A9AFAF703FF04460E46009B0A9AFAF747
:105500009EFF3A465346FAF79DFF33E0BA0C00007F
:105510000000F03F900D0000280C00000000084043
:1055200009C7EE3FFD033ADCF5015B14E02F3EBEF8
:10553000000B0000C60A00000000F0BF0000904011
:10554000FE822B654715973C00CC904000346F3F9E
:1055500001FCFFFF0000E03F8C0A0000FFFF0F008E
:10556000432EE63F396CA80C615C20BEEF39FAFE91
:10557000422EE63F0746224633460F911046194613
:10558000FAF763FF834602462E488A460B460521FA
:105590007844FEF7CDFE5A465346FAF756FF2246A8
:1055A0003346FAF74FFF82468B463A46204631464D
:1055B0000F9BFAF74AFF3A460F9BFAF79FFE0F46FA
:1055C0000A9000224FF0804350465946FAF737FFC1
:1055D0000391009052465B4620463146FAF735FF6C
:1055E000039B009AFAF7A3FF3B460A9AFAF727FFB4
:1055F00022463346FAF723FF0022134BFAF722FF25
:105600000E46044601EB08510815002810DC4246FE
:1056100020463146FBF719F9FEF776FE042808BF4D
:10562000FEF7F6FE424620463146FBF70EF90446E9
:1056300006980B4614B022462946BDE8F04DFAF70D
:1056400004BF00009C0800000000F03F3C48808838
:10565000B0F5966F07DA3A48C088B0F5966F02DA6F
:10566000FF203849087037480078042834D006DC19
:10567000012809D0022811D003285BD122E01F287D
:1056800031D0FF2856D14CE02D48808840F27E4131
:10569000884202DA02202B4908704FE028488088AF
:1056A000B0F5E16F0DDD28480078401C26490870F0
:1056B00008460078052804DD0020087003202149F1
:1056C00008703BE01E48808840F27E41884202DA42
:1056D00004201C49087031E001201C4908701F207B
:1056E000184908702AE01648808840F2154188421F
:1056F0000CDA174801880088401C154A1080B1F563
:10570000FA6F0DDDFF200F49087009E00F4800789F
:1057100018B9FF200B49087002E000200C490880EE
:105720000CE000200A49088008490870012005495A
:10573000087003E0FF200349087000BF00BF7047F6
:105740001C0300209E020020A20200202600002050
:10575000A002002070B505460C46082C26D2DFE8D2
:1057600004F004090D1115191D214FF0924019493B
:1057700008601BE018481749086017E017481549EA
:10578000086013E01648134908600FE015481149F6
:1057900008600BE014480F49086007E013480D4902
:1057A000086003E012480B49086000BF00BF45EAEB
:1057B0000401062000F0A2FA032C09DD092000F004
:1057C000DAF9064646F00401092000F097FA00BF16
:1057D00070BD0000440000200000C0490000604A85
:1057E0000000F04A000078480000FC4800007E49B4
:1057F0000000FF4970B505460C46082C26D2DFE8AC
:1058000004F004090D1115191D214FF092401A4999
:1058100008601BE019481849086017E01848164945
:10582000086013E01748144908600FE01648124951
:1058300008600BE015481049086007E014480E495D
:10584000086003E013480C49086000BF00BF45EA48
:10585000040040F08001072000F050FA032C09DD1D
:10586000092000F088F9064646F00801092000F0FA
:1058700045FA00BF70BD0000400000200000C04994
:105880000000604A0000F04A000078480000FC4830
:1058900000007E490000FF4938B503226946002018
:1058A00000F05EF99DF8000000049DF8011040EA48
:1058B00001209DF8021040EA010404F4000010B138
:1058C00044F07F4000E020460446204638BD38B50D
:1058D00003226946104600F043F99DF800000004D9
:1058E0009DF8011040EA01209DF8021040EA0104F1
:1058F00004F4000010B144F07F4000E0204604466C
:10590000204638BD10B586B089210C2000F0F6F98C
:1059100010B1012006B010BD2820FFF7B1F80D200E
:1059200000F029F90446102C01D00220F2E764208F
:10593000FFF7A6F8122201A9102000F011F99DF836
:10594000040000019DF8051040EA11107A49088012
:105950000846008800F4006028B10846B0F900004D
:1059600040F4704002E07448B0F9000000B272499F
:1059700008809DF806009DF8051001F00F0140EA2F
:1059800001206E4908800846008800F4006028B1B4
:105990000846B0F9000040F4704002E06748B0F9F2
:1059A000000000B2654908809DF8070000039DF8DB
:1059B000081040EA01109DF8091040EA21106049E2
:1059C00008609DF809000007000B9DF80A1040EAE6
:1059D00001209DF80B1008435A4908605848006898
:1059E00000F4002020B1564800685749084301E000
:1059F00053480068524908605248006800F400208B
:105A000020B1504800685049084301E04D48006803
:105A10004C4908609DF80D009DF80C1040EA0120EB
:105A200000B24A4908800846008800F4006028B1A6
:105A30000846B0F9000040F4704002E04348B0F975
:105A4000000000B2414908809DF80F009DF80E103B
:105A500040EA012000B23E4908800846008800F470
:105A6000006028B10846B0F9000040F4704002E040
:105A70003748B0F9000000B2354908809DF81100A0
:105A80009DF8101040EA012000B232490880084613
:105A9000008800F4006028B10846B0F9000040F426
:105AA000704002E02B48B0F9000000B2294908809C
:105AB0009DF813009DF8121040EA012000B226491B
:105AC00008800846008800F4006028B10846B0F954
:105AD000000040F4704002E01F48B0F9000000B23E
